:1000000000400020F3010000E9010000E9010000C8
:10001000A1010000A1010000A1010000A101000058
:10002000A1010000A1010000A1010000E901000000
:10003000A1010000A1010000E9010000E9010000A8
:10004000E9010000E9010000E9010000E901000008
:10005000E9010000A1010000E9010000E901000040
:10006000E9010000E9010000E9010000E9010000E8
:10007000E9010000E9010000E9010000E9010000D8
:10008000E9010000E9010000E9010000E9010000C8
:10009000E9010000E9010000E9010000E9010000B8
:1000A000E9010000E9010000A1010000A101000038
:1000B000A1010000A1010000A1010000A1010000B8
:1000C000F0B5DE4657464E464546E0B583B000F0F3
:1000D0005FFA002000F0F0FA002398469946019359
:1000E0002B4E3CE001239C46E0444346033B5A1E12
:1000F00093415B4242461A409046022835D0254B38
:100100004A461A604346DB00234A9B589B46214BD4
:100110009A46D847051E0BDB00243100200000F072
:100120002BF90821300000F0A8F90134AC42F4DDCD
:1001300053464A461A60174D184C154F2B002200A3
:100140000521380000F0B6F92900200000F032FA4D
:100150000028F3D00F4B4A461A600128D9DD0D4B19
:10016000019A1A601D000D4C0B4F4346DB00FB1833
:1001700058682B002200052100F09CF9290020007E
:1001800000F018FA0128ADDC0028EED0B7E7C04631
:10019000C8040020C40400208010000034030020A4
:1001A00072B60C4B0C4A1A600C4A8020C001002128
:1001B00010600B4BC046C046C046013B002BF9D136
:1001C0001160084BC046C046C046013B002BF9D128
:1001D000EEE7C04614050050F0FF00000405005093
:1001E00040420F00400D030010B5FFF7D9FF10BDCE
:1001F000704710B5164A136803210B431360154A64
:10020000154B9A420DD20333144A9B1A9B080133B3
:100210009B0000220F4812498C58845004329A42A5
:10022000FAD1104A104B9A4209D2111D03335B1ABE
:10023000032083435B18002102C29A42FCD1FFF7DE
:10024000D7FFFFF73DFFFFF7D3FF20BFFDE7C04615
:1002500024050040000000200800002004000020C9
:10026000BC10000008000020E004002070B5002849
:1002700012DB83109B00134A944663441C68C00041
:10028000FF221600864003252E40B4430A408240D8
:100290002A4022431A6070BD030008339B109B0064
:1002A000094A944663441C68C000FF221600864039
:1002B00003252E40B4430A4082402A4022431A605C
:1002C000E9E7C04600E400E01CED00E001238340C4
:1002D000014A13607047C04600E100E001238340FB
:1002E000014A13607047C04680E100E0012383406B
:1002F000014A13607047C04680E200E0F0B5D64680
:100300004F464646C0B5174A0A60174A4A60174A20
:100310008A608146164E37006437642290468044D6
:10032000144B9C4616E00433142B0DD0EA58002AD7
:10033000F9D0F25892008A18FC58A4006444A46CC6
:100340001068041B1460EEE79A46D1441436143743
:10035000C14502D04D460023E8E71CBC90469946B3
:10036000A246F0BDF03F0000F05F0000F09F0000EB
:10037000940F000014100000F0B5DE4657464E46BC
:100380004546E0B519281EDD002300E02B00193892
:100390005D425D41EDB21928F8DC002B14D18023B9
:1003A0009B010B608023DB014B6080231B028B6071
:1003B000002849DD002600220024264B9C46264BBF
:1003C0009946984621E00025244B0B60244B4B6056
:1003D000244B8B60ECE7B3009B199B189B0067468E
:1003E000DF59BF00BA468A4463445B6E9B004B44AE
:1003F0009B6C57463F68BB465B4457463B600134A5
:100400000132042A19DC84421EDA002DE3D1B30044
:100410009B199B189B000F4FDF59BF00BA468A44B7
:100420000C4FBB465B445B6E9B0043449B6C574642
:100430003F68FB1A57463B60E1E70136042E03DCB8
:10044000844201DA0022E0E73CBC90469946A2468D
:10045000AB46F0BD940F000014100000F03F000008
:10046000F05F0000F09F0000400005D0C046C0468D
:10047000C04601380028F9D17047F8B504000D1EB8
:1004800013DD0027094E236833600948FFF7ECFFAE
:10049000636833600648FFF7E7FFA36833600448EA
:1004A000FFF7E2FF0137BD42EDD1F8BD0405005072
:1004B00088130000F0B5DE4657464E464546E0B587
:1004C00083B00600884601929946002951DD002735
:1004D0002B4B9A469B4630E002310DE05B465B6851
:1004E000002B09D0083107E0002BF7D1244A5268CD
:1004F000002AF1D0002BF5D1214B18605C60002957
:1005000007D04B461B685A1C484602609B00019A64
:1005100099501C4D33682B601B4C2000FFF7A4FF43
:1005200073682B602000FFF79FFFB3682B602000EB
:10053000FFF79AFF0137B8451BD0144B1B68802288
:1005400092021A40504250418021C9040B405C4243
:100550005C41002A04D1012155462D68002DC3D0ED
:100560000021002AC0D0064A11680029BCD004210D
:10057000BAE703B03CBC90469946A246AB46F0BDF4
:1005800008000020040500508813000010050050EA
:10059000044B054A1A600023044A1360044A13609E
:1005A0007047C04614050050F0FF0000440700509B
:1005B00068070050F0B583B001900B68002B24DD74
:1005C000050000220126022705E00132002809D19A
:1005D00004359A4206D0286830402C682742F4D06F
:1005E0000230F2E79B1A002B0CDD9300019CE4180B
:1005F0005E4200252368A35101350B689B1A043421
:10060000AB42F7DC0B6003B0F0BD0020FAE770B539
:1006100005000C0021002800FFF7CCFF0328F9D0CB
:1006200070BDF0B5CE4600B582B001908946170086
:10063000134B00221A60134E1D00134C3100386812
:10064000FFF79AFE2B00220005213000FFF732FF52
:1006500029002000FFF7AEFF012808DC0028EDD0BC
:10066000074B00221A6002B004BC9146F0BD3B6803
:1006700001334B4500DD019B3B600228DED0EFE7F4
:10068000C4040020C804002034030020064A106877
:10069000064B434306498C466344434305498C4615
:1006A000634413607047C04610000020318C24045E
:1006B0009D48DA04A3A4930510B5034B1860FFF717
:1006C000E5FFFFF7E3FF10BD1000002070B5174BEA
:1006D0001B68192B1ED0FFF7D9FF144B1B6819217B
:1006E000C91A00F067FB002914DB104C0434002504
:1006F0000122524215E00133052B0CD08A4209DA5F
:10070000980020580028F6D001329142F3D1074AD0
:100710009566D36670BD0135052DFBD014348A4231
:10072000F8DA9142F6DD0023EAE7C0461400002023
:1007300070B51A4B1900643100221A605A609A6031
:10074000DA601A6114339942F7D1154B1B68002BFC
:1007500011DD144A5800C018800080180F4D012484
:1007600011688B005B1851688C4663449B005C5198
:100770000C329042F4D1094C0B492000FFF7BEFD2A
:10078000074A916E8B005B18D26E9B189B0001226A
:100790001A5106492000FFF7B1FD70BDD0020020BC
:1007A0001400002098000020D4040020C804002079
:1007B000F0B5DE4657464E464546E0B583B09E4905
:1007C0000B1D683101221A605A609A60DA601A6162
:1007D00014339942F7D1984A03241460974B0125AA
:1007E0001D6002205860002199601162D860186174
:1007F000596151639C61D861196291645567916731
:10080000D467FFF763FF8E4C22000F210120FFF712
:1008100008FF226811239B1A8A4A1360864B984668
:10082000864B99461C000C3CA24662E0824A936FBC
:1008300001339367804B9B6F002B00DA8DE0042B14
:1008400000D092E07C4B00229A677C4B1968586874
:100850000139002900DA9EE04B1F5A1E93415B428A
:100860001940002800DA98E0431F5A1E93415B426A
:100870001840714B1E68731E5D00ED18AD006F4A85
:100880005519AA68002A00D189E00022AA60721CCA
:100890000192694B1A60684B1A68531E002B0CDDDD
:1008A00053009B189B00183B4B441A000C321E004F
:1008B000B0CEB0C20C3B5345F7D1604B19605860C5
:1008C00000229A605C4B9B6E994200D188E08B00BD
:1008D0005B181B189B00584AD3185B68002B00D18B
:1008E00094E08B0059180818800053490818002319
:1008F000436043465B6F002B00D18DE0FFF718FF8C
:10090000514E524D4F4F0321386800F057FA010005
:1009100033002A004E48FFF7CDFD3B685800032105
:1009200000F04CFA010033002A004A48FFF7C2FDEC
:10093000396833002A004648FFF7BCFD3100280023
:10094000FFF765FE022800D170E7012800D071E7AB
:10095000394A936F013B93676CE7374B03229A67E1
:10096000364B19685868013873E7344B1968586872
:10097000314B9B6F012B0CD003DD022B05D10131D4
:1009800067E7002B00D064E762E7032B00D060E745
:10099000E9E701305DE7042163E7042069E7721CA1
:1009A0000192264A93467200921992005C00A44676
:1009B000E618B6005A445E44B0CEB0C26246D218C1
:1009C00092005C46165963449A005A44B3009B193E
:1009D00052689B189B00184AD31801225A605AE7A4
:1009E000154BDB6E984200D071E7144B01329A60D0
:1009F000114D8B00591808188000281800234360F7
:100A0000FFF764FEEB6F0133EB6772E71300002220
:100A10005A67019A1A606CE7FFF78AFE28210C4892
:100A2000FFF72BFD044BD86F03B03CBC90469946B2
:100A3000A246AB46F0BDC04614000020980000203E
:100A40000000002094000020C40400203403002093
:100A5000C8040020D40400200520704770B50500AC
:100A6000FFF714FE094BEC0001225242E2501C1920
:100A7000052100F09FF96160054B1B68AB4200D077
:100A800070BD0133024A1360FAE7C0460802002035
:100A9000DC010020F8B51F4B1900643100221A60F8
:100AA0005A609A60DA601A6114339942F7D11A4B8E
:100AB0001D68002D1FDD194AED00AD1815480126EF
:100AC00002E00832954216D017001368042B06D8AE
:100AD0009C00E41851688C466444A40026505C1EB7
:100AE000042CEED82300A400E3187C681B199B009B
:100AF00008495E50E5E70748074A51688B005B18D4
:100B000092689B189B0001221A500549FFF7F6FBDB
:100B1000F8BDC046D0020020DC0100200802002001
:100B2000C8040020F8B5DE4657464E464546E0B5B7
:100B3000574C0123E36023616361A361E3610422F5
:100B40006260023AA2602362002363622360002095
:100B5000FFF784FF4F4D2A000F210120FFF761FDB1
:100B60002A6810239B1AA362494DA84608239A4677
:100B7000474F002626E0464B9B680133042B07DCD9
:100B80009900434A5218D268002A01D0404A936023
:100B900041494248FFF73BFD00280ED00228EAD029
:100BA0000128F5D1AB68013BF2D49A004244D268E7
:100BB000002AEDD0364A9360EAE70136344B9B6A4F
:100BC000B34212D03B6A002B53D0FFF763FF334C84
:100BD000314B220002213248FFF76CFC2E492000E5
:100BE000FFF715FD0028D9D1E7E7294B0122DA608C
:100BF0001A615A619A61DA61186800282FDD294C60
:100C0000002699469B4610E05A46926860688242E8
:100C100013D100221E4802620FE0062B17D00136C6
:100C20001B4B18680834864219DA21002368013307
:100C300023604A4652689342E6D01A1F012AECD834
:100C400049688900124A52180021D160E5E7104A2C
:100C5000536A013353623000FFF700FFDFE70123DF
:100C60005B429C46E2445346002B82D1FFF7F6FEDE
:100C70007CE7FFF70FFF28210948FFF7FEFB044B35
:100C8000586A3CBC90469946A246AB46F8BDC04661
:100C9000DC01002004000020C404002034030020F4
:100CA000C804002008020020002243088B4274D3AD
:100CB00003098B425FD3030A8B4244D3030B8B425D
:100CC00028D3030C8B420DD3FF22090212BA030C66
:100CD0008B4202D31212090265D0030B8B4219D347
:100CE00000E0090AC30B8B4201D3CB03C01A524167
:100CF000830B8B4201D38B03C01A5241430B8B42AF
:100D000001D34B03C01A5241030B8B4201D30B0397
:100D1000C01A5241C30A8B4201D3CB02C01A5241BE
:100D2000830A8B4201D38B02C01A5241430A8B4281
:100D300001D34B02C01A5241030A8B4201D30B026A
:100D4000C01A5241CDD2C3098B4201D3CB01C01A84
:100D5000524183098B4201D38B01C01A524143098E
:100D60008B4201D34B01C01A524103098B4201D37C
:100D70000B01C01A5241C3088B4201D3CB00C01AE9
:100D8000524183088B4201D38B00C01A5241430861
:100D90008B4201D34B00C01A5241411A00D2014686
:100DA000524110467047FFE701B5002000F0F0F80F
:100DB00002BDC0460029F7D076E7704703460B43D3
:100DC0007FD4002243088B4274D303098B425FD344
:100DD000030A8B4244D3030B8B4228D3030C8B4270
:100DE0000DD3FF22090212BA030C8B4202D3121256
:100DF000090265D0030B8B4219D300E0090AC30B2B
:100E00008B4201D3CB03C01A5241830B8B4201D3D7
:100E10008B03C01A5241430B8B4201D34B03C01AC0
:100E20005241030B8B4201D30B03C01A5241C30A38
:100E30008B4201D3CB02C01A5241830A8B4201D3A9
:100E40008B02C01A5241430A8B4201D34B02C01A93
:100E50005241030A8B4201D30B02C01A5241CDD238
:100E6000C3098B4201D3CB01C01A524183098B4283
:100E700001D38B01C01A524143098B4201D34B016C
:100E8000C01A524103098B4201D30B01C01A5241CF
:100E9000C3088B4201D3CB00C01A524183088B4256
:100EA00001D38B00C01A524143088B4201D34B003F
:100EB000C01A5241411A00D20146524110467047B1
:100EC0005DE0CA0F00D04942031000D340425340B6
:100ED00000229C4603098B422DD3030A8B4212D376
:100EE000FC22890112BA030A8B420CD389019211A8
:100EF0008B4208D3890192118B4204D389013AD0E5
:100F0000921100E08909C3098B4201D3CB01C01AB9
:100F1000524183098B4201D38B01C01A52414309CC
:100F20008B4201D34B01C01A524103098B4201D3BA
:100F30000B01C01A5241C3088B4201D3CB00C01A27
:100F4000524183088B4201D38B00C01A5241D9D23F
:100F500043088B4201D34B00C01A5241411A00D2C0
:100F60000146634652415B10104601D34042002BBC
:100F700000D54942704763465B1000D3404201B53B
:100F8000002000F005F802BD0029F8D016E77047F0
:100F90007047C04600000000010000000000000093
:100FA000010000000000000002000000020000003C
:100FB000020000000200000002000000010000002A
:100FC000000000000100000002000000010000001D
:100FD0000000000000000000000000000000000011
:100FE00000000000020000000100000002000000FC
:100FF00001000000020000000000000003000000EB
:1010000001000000040000000200000003000000D6
:1010100004000000050000000600000007000000BA
:1010200001000000080000000200000008000000AD
:10103000000000000700000006000000050000009E
:101040000400000003000000020000000600000091
:10105000000000000500000001000000100000007A
:10106000200000004000000080000000000100009F
:101070000002000000040000000800000010000052
:10108000B107000098100000590A0000A4100000E9
:10109000250B0000B0100000F02A0000F05F0000F7
:1010A000F09C0000F03F0000F05B0000E08F0000CB
:0C10B000F03F0000705F0000E08A0000CC
:0810BC0001000000010000002A
:00000001FF
