:1000000000400020F3010000E9010000E9010000C8
:10001000A1010000A1010000A1010000A101000058
:10002000A1010000A1010000A1010000E901000000
:10003000A1010000A1010000E9010000E9010000A8
:10004000E9010000E9010000E9010000E901000008
:10005000E9010000A1010000E9010000E901000040
:10006000E9010000E9010000E9010000E9010000E8
:10007000E9010000E9010000E9010000E9010000D8
:10008000E9010000E9010000E9010000E9010000C8
:10009000E9010000E9010000E9010000E9010000B8
:1000A000E9010000E9010000A1010000A101000038
:1000B000A1010000A1010000A1010000A1010000B8
:1000C000F0B5DE4657464E464546E0B583B000F0F3
:1000D000F5FA002000F086FB00239846994601932C
:1000E0002B4E3CE001239C46E0444346033B5A1E12
:1000F00093415B4242461A409046022835D0254B38
:100100004A461A604346DB00234A9B589B46214BD4
:100110009A46D847051E0BDB00243100200000F072
:100120005BF90821300000F0D8F90134AC42F4DD6D
:1001300053464A461A60174D184C154F2B002200A3
:100140000521380000F026FA2900200000F0C8FA46
:100150000028F3D00F4B4A461A600128D9DD0D4B19
:10016000019A1A601D000D4C0B4F4346DB00FB1833
:1001700058682B002200052100F00CFA290020000D
:1001800000F0AEFA0128ADDC0028EED0B7E7C0469B
:10019000C8040020C4040020101E00003403002006
:1001A00072B60C4B0C4A1A600C4A8020C001002128
:1001B00010600B4BC046C046C046013B002BF9D136
:1001C0001160084BC046C046C046013B002BF9D128
:1001D000EEE7C04614050050F0FF00000405005093
:1001E00040420F00400D030010B5FFF7D9FF10BDCE
:1001F000704710B5164A136803210B431360154A64
:10020000154B9A420DD20333144A9B1A9B080133B3
:100210009B0000220F4812498C58845004329A42A5
:10022000FAD1104A104B9A4209D2111D03335B1ABE
:10023000032083435B18002102C29A42FCD1FFF7DE
:10024000D7FFFFF73DFFFFF7D3FF20BFFDE7C04615
:1002500024050040000000200800002004000020C9
:100260008C1E000008000020F804002070B5002853
:1002700012DB83109B00134A944663441C68C00041
:10028000FF221600864003252E40B4430A408240D8
:100290002A4022431A6070BD030008339B109B0064
:1002A000094A944663441C68C000FF221600864039
:1002B00003252E40B4430A4082402A4022431A605C
:1002C000E9E7C04600E400E01CED00E001238340C4
:1002D000014A13607047C04600E100E001238340FB
:1002E000014A13607047C04680E100E0012383406B
:1002F000014A13607047C04680E200E030B58022BA
:1003000092020240514251418023DB0403405C428F
:100310005C41002A04D1104805680120002D07D057
:100320000020002A04D00C4A1068002800D00420C5
:10033000002B0BD1084A5268002A05D0002B09D1A6
:10034000054B19605C6030BD0230F9E7024B5B6819
:10035000002BF5D00830F3E708000020F0B5D646B2
:100360004F464646C0B5174A0A60174A4A60174AC0
:100370008A608146164E3700643764229046804476
:10038000144B9C4616E00433142B0DD0EA58002A77
:10039000F9D0F25892008A18FC58A4006444A46C66
:1003A0001068041B1460EEE79A46D14414361437E3
:1003B000C14502D04D460023E8E71CBC9046994653
:1003C000A246F0BDF03F0000F05F0000F09F00008B
:1003D000241D0000A41D0000F0B5DE4657464E4621
:1003E0004546E0B519281EDD002300E02B00193832
:1003F0005D425D41EDB21928F8DC002B14D1802359
:100400009B010B608023DB014B6080231B028B6010
:10041000002849DD002600220024264B9C46264B5E
:100420009946984621E00025244B0B60244B4B60F5
:10043000244B8B60ECE7B3009B199B189B0067462D
:10044000DF59BF00BA468A4463445B6E9B004B444D
:100450009B6C57463F68BB465B4457463B60013444
:100460000132042A19DC84421EDA002DE3D1B300E4
:100470009B199B189B000F4FDF59BF00BA468A4457
:100480000C4FBB465B445B6E9B0043449B6C5746E2
:100490003F68FB1A57463B60E1E70136042E03DC58
:1004A000844201DA0022E0E73CBC90469946A2462D
:1004B000AB46F0BD241D0000A41D0000F03F00006D
:1004C000F05F0000F09F0000400005D0C046C0462D
:1004D000C04601380028F9D17047F8B504000D1E58
:1004E00013DD0027094E236833600948FFF7ECFF4E
:1004F000636833600648FFF7E7FFA368336004488A
:10050000FFF7E2FF0137BD42EDD1F8BD0405005011
:1005100088130000F0B5D6464F4680B583B006007C
:100520008946100019000A9B9A460022174B00F0DA
:10053000EBFD04000D0001F0A1FB009022002B0058
:100540000020124901F052F801F098FB01900025BB
:100550005346002B14DD0E4F02E00135AA450FD0A3
:10056000002433593B600098FFF7AEFF4B461B5900
:100570003B600198FFF7A8FF04340C2CF1D1ECE7A5
:1005800003B00CBC91469A46F0BDC0460088B3400B
:1005900004050050F0B5DE464F464646C0B504009F
:1005A000884693469946002923DD0027134D144EB3
:1005B00011E0236833601348FFF786FF63683360F8
:1005C0001048FFF781FFA36833600E48FFF77CFFF8
:1005D0000137B8450DD02868FFF790FE0028E8D015
:1005E0004B461B685A1C49460A609B005A46985065
:1005F000DFE71CBC90469946A346F0BD10050050AD
:100600000405005088130000F0B5DE4657464E46FC
:100610004546E0B583B007000E00100019000C9BA2
:1006200098460E9B9A460022214B00F06DFD040077
:100630000D0001F023FB009022002B0000201C493C
:1006400000F0D4FF01F01AFB01904346002B27DD98
:1006500000239946174B9B46174D12E000243B5947
:100660002B600098FFF730FF33592B600198FFF79C
:100670002BFF04340C2CF2D101239C46E144C845E5
:100680000ED05B461868FFF739FE0028E6D05346C7
:100690001B685A1C51460A609B000D9A9850DDE772
:1006A00003B03CBC90469946A246AB46F0BDC0465E
:1006B0000088B3401005005004050050044B054A63
:1006C0001A600023044A1360044A13607047C0464E
:1006D00014050050F0FF0000440700506807005068
:1006E000F0B583B001900B68002B24DD05000022DB
:1006F0000126022705E00132002809D104359A427B
:1007000006D0286830402C682742F4D00230F2E747
:100710009B1A002B0CDD9300019CE4185E4200251F
:100720002368A35101350B689B1A0434AB42F7DCF4
:100730000B6003B0F0BD0020FAE770B505000C00B7
:1007400021002800FFF7CCFF0328F9D070BDF0B5D9
:10075000CE4600B582B0019089461700134B0022A7
:100760001A60134E1D00134C31003868FFF734FE39
:100770002B00220005213000FFF70CFF290020008C
:10078000FFF7AEFF012808DC0028EDD0074B002260
:100790001A6002B004BC9146F0BD3B6801334B4582
:1007A00000DD019B3B600228DED0EFE7C40400209F
:1007B000C804002034030020064A1068064B434357
:1007C00006498C466344434305498C4663441360A1
:1007D0007047C04610000020318C24049D48DA0484
:1007E000A3A4930510B5034B1860FFF7E5FFFFF7CF
:1007F000E3FF10BD1000002070B5174B1B68192BCC
:100800001ED0FFF7D9FF144B1B681921C91A00F03D
:100810008BFB002914DB104C0434002501225242CA
:1008200015E00133052B0CD08A4209DA98002058D4
:100830000028F6D001329142F3D1074A9566D3667B
:1008400070BD0135052DFBD014348A42F8DA91428F
:10085000F6DD0023EAE7C0461400002070B51A4B0D
:100860001900643100221A605A609A60DA601A61D5
:1008700014339942F7D1154B1B68002B11DD144A34
:100880005800C018800080180F4D012411688B009B
:100890005B1851688C4663449B005C510C3290425B
:1008A000F4D1094C0B492000FFF758FD074A916E1F
:1008B0008B005B18D26E9B189B0001221A510649CF
:1008C0002000FFF74BFD70BDD00200201400002077
:1008D00098000020D4040020C8040020F8B5DE46AB
:1008E00057464E464546E0B5A2490B1D68310122E8
:1008F0001A605A609A60DA601A6114339942F7D12B
:100900009C4A032414609C4B01251D600220586002
:10091000002199601162D8601861596151639C612E
:10092000D8611962916455679167D467FFF764FFD6
:10093000924C22000F210120FFF709FF22681423A7
:100940009B1A8F4A13608B4B9B468B4B0C22524257
:1009500094466344994665E0864A936F01339367F2
:10096000844B9B6F002B00DA96E0042B00D09BE0B9
:10097000804B00229A67804B19685868013900291A
:1009800000DAA7E04B1F5A1E93415B421940002832
:1009900000DAA1E0431F5A1E93415B421840754B99
:1009A0001D686B1E5C00E418A400734A1419A26849
:1009B000002A00D192E00022A2606B1C9A466D4B87
:1009C00052461A606B4B1A68531E002B0EDD530003
:1009D0009B189B00183B684A944663441A000C32EB
:1009E0001D00D0CDD0C20C3B4B45F7D1624B1960F6
:1009F000586000229A605F4B9B6E994200D18EE056
:100A00008B005B181B189B005A4AD3185B68002B9D
:100A100000D19AE08B005918081880005549081831
:100A2000002343605B465B6F002B00D193E0FFF730
:100A300015FF534B1C680321200000F079FA0700D2
:100A40006000032100F074FAC31B9A46231A9846EB
:100A50004C4D4D4C4D4E2B00220039003000FFF71D
:100A600099FD2B00220051464948FFF793FD2B00CA
:100A7000220041463000FFF78DFD29002000FFF7DE
:100A80005CFE022800D167E7012800D068E7394AF8
:100A9000936F013B936763E7364B03229A67364BAC
:100AA0001968586801386AE7334B19685868314B40
:100AB0009B6F012B0CD003DD022B05D101315EE7CA
:100AC000002B00D05BE759E7032B00D057E7E9E79D
:100AD000013054E704215AE7042060E76A1C92467B
:100AE000254A94466A00521992005C00A046E51817
:100AF000AD0062446544D0CDD0C24246D2189200C7
:100B00006446125943449F00674493009B187A68D7
:100B10009B189B00174AD31801225A6052E7154BC5
:100B2000DB6E984200D06BE7134B01329A60114C98
:100B30008B00591808188000201800234360FFF725
:100B40005BFEE36F0133E3676CE7130000225A6733
:100B500052461A6066E7FFF781FE28210B48FFF72F
:100B6000BCFC044BD86F3CBC90469946A246AB46B1
:100B7000F8BDC046140000209800002000000020AE
:100B800094000020C404002034030020C804002086
:100B9000D40400200520704770B50500FFF70CFE57
:100BA000094BEC0001225242E2501C19052100F0D1
:100BB000BBF96160054B1B68AB4200D070BD0133CF
:100BC000024A1360FAE7C04608020020DC01002058
:100BD000F8B5214B1900643100221A605A609A60FE
:100BE000DA601A6114339942F7D11C4B1D68002D4D
:100BF0001FDD1B4AED00AD181748012602E0083240
:100C0000954216D017001368042B06D89C00E418F0
:100C100051688C466444A40026505C1E042CEED817
:100C20002300A400E3187C681B199B000A495E504E
:100C3000E5E7094C0B492000FFF790FB074A516894
:100C40008B005B1892689B189B0001221A51064981
:100C50002000FFF783FBF8BDD0020020DC0100205C
:100C600008020020D4040020C8040020F0B5D646B5
:100C70004F464646C0B584B05F4C0123E360236114
:100C80006361A361E36104226260023AA2602362AD
:100C90000023636223600020FFF77EFF574D2A0088
:100CA0000F210120FFF753FD2B681220C01A83008B
:100CB0001818032100F03CF9A0624F4B99461F0021
:100CC00017239846002427E04B4B9B680133042BE5
:100CD00007DC9900484A5218D268002A01D0464AD7
:100CE000936047494748FFF728FD00280FD00228A6
:100CF000EAD00128F5D1BB68013BF2D49A003E4905
:100D00008C466244D268002AEBD08B60E9E701345C
:100D1000394B9B6AA34218D04B461B6A002B58D014
:100D2000FFF756FF364E0296364D0195012300938C
:100D3000354A364B36493748FFF766FC3100280004
:100D4000FFF7FBFC0028D2D1E1E72B4B0122DA6050
:100D50001A615A619A61DA61186800282EDD2E4CFA
:100D600000261D009A4610E0524692686068824252
:100D700012D10022204802620EE0062B16D0013666
:100D80001D4B18680834864218DA210023680133A5
:100D900023606A689342E7D01A1F012AEDD8496898
:100DA0008900154A52180021D160E6E7124A536AB9
:100DB000013353623000FFF7EFFEE0E701235B42AF
:100DC0009C46E0444346002B00D07BE7FFF7E4FE5F
:100DD00076E7FFF7FDFE28210E48FFF77EFB064B66
:100DE000586A0230032100F0A3F804B01CBC9046FE
:100DF0009946A246F0BDC046DC0100200400002058
:100E0000C4040020340300209A9999999999993F34
:100E1000D4040020C8040020080200200022430857
:100E20008B4274D303098B425FD3030A8B4244D3B2
:100E3000030B8B4228D3030C8B420DD3FF220902F4
:100E400012BA030C8B4202D31212090265D0030BB3
:100E50008B4219D300E0090AC30B8B4201D3CB03A9
:100E6000C01A5241830B8B4201D38B03C01A5241EB
:100E7000430B8B4201D34B03C01A5241030B8B42ED
:100E800001D30B03C01A5241C30A8B4201D3CB02D8
:100E9000C01A5241830A8B4201D38B02C01A5241BD
:100EA000430A8B4201D34B02C01A5241030A8B42C0
:100EB00001D30B02C01A5241CDD2C3098B4201D3D8
:100EC000CB01C01A524183098B4201D38B01C01A56
:100ED000524143098B4201D34B01C01A52410309CD
:100EE0008B4201D30B01C01A5241C3088B4201D37C
:100EF000CB00C01A524183088B4201D38B00C01A29
:100F0000524143088B4201D34B00C01A5241411A4F
:100F100000D20146524110467047FFE701B500205C
:100F200000F0F0F802BDC0460029F7D076E7704720
:100F300003460B437FD4002243088B4274D303093A
:100F40008B425FD3030A8B4244D3030B8B4228D3DB
:100F5000030C8B420DD3FF22090212BA030C8B4201
:100F600002D31212090265D0030B8B4219D300E0A1
:100F7000090AC30B8B4201D3CB03C01A5241830B26
:100F80008B4201D38B03C01A5241430B8B4201D3D6
:100F90004B03C01A5241030B8B4201D30B03C01AFF
:100FA0005241C30A8B4201D3CB02C01A5241830A79
:100FB0008B4201D38B02C01A5241430A8B4201D3A8
:100FC0004B02C01A5241030A8B4201D30B02C01AD2
:100FD0005241CDD2C3098B4201D3CB01C01A524139
:100FE00083098B4201D38B01C01A524143098B42C2
:100FF00001D34B01C01A524103098B4201D30B01AB
:10100000C01A5241C3088B4201D3CB00C01A5241CF
:1010100083088B4201D38B00C01A524143088B4294
:1010200001D34B00C01A5241411A00D2014652412D
:10103000104670475DE0CA0F00D04942031000D34C
:101040004042534000229C4603098B422DD3030AA1
:101050008B4212D3FC22890112BA030A8B420CD3B1
:10106000890192118B4208D3890192118B4204D3DA
:1010700089013AD0921100E08909C3098B4201D35A
:10108000CB01C01A524183098B4201D38B01C01A94
:10109000524143098B4201D34B01C01A524103090B
:1010A0008B4201D30B01C01A5241C3088B4201D3BA
:1010B000CB00C01A524183088B4201D38B00C01A67
:1010C0005241D9D243088B4201D34B00C01A52413E
:1010D000411A00D20146634652415B10104601D3CB
:1010E0004042002B00D54942704763465B1000D355
:1010F000404201B5002000F005F802BD0029F8D0FB
:1011000016E770477047C046F0B55746DE464E4674
:101110004546E0B5834606000F03480087B0924677
:101120001D003F0B400DCC0F002800D16FE0DE4BBF
:10113000984238D08023FF001B041F43730F3B43AA
:101140000193DA4B0027994600239B46F600814421
:101150002B0369001B0B52469846490DED0F0029E1
:1011600000D185E0D04B994200D173E04346DA00CC
:1011700080231B0413435246CC48520F844613432A
:10118000524600206144D200894421006940009108
:101190008C46012149448A460F2F00D990E0C4496A
:1011A000BF00CF59BF465B463B43019300D06AE185
:1011B00002230827002681469B46C9E7320058468D
:1011C000019B61460091022800D175E0032800D1FF
:1011D000FEE1012800D02CE1002300270026002595
:1011E0003F032A0D3F0BB34812053A4302401B054B
:1011F0001343009A5B00D1075B080B4330001900D2
:1012000007B03CBC90469946A246AB46F0BD5B4653
:101210003B43019300D12FE1002F00D1A5E138001D
:1012200000F062FD03000B3B1C2B00DD96E11D224C
:10123000D31A5A460100DA405E4608398F4013003F
:101240008E403B4301939C4B00271B1A9946002379
:101250009B467DE7414653460B4393498C46E14408
:10126000002B00D01AE102220220174300228CE753
:10127000134300D10DE14346002B00D181E14046EC
:1012800000F032FD02000B3A1C2A00DD72E1010081
:10129000434608398B4098461D239A1A5346D3403B
:1012A0001A004346134352468A404946081A824967
:1012B00089468144002068E77B4B002700268EE7A3
:1012C000140C1204120C1100370C3604350C79433F
:1012D00028008C462E00604360448346564321001C
:1012E000300C80465846794340440291844506D9E3
:1012F0008846802149028C46E044414602913604EA
:10130000010C360C00048B4681191E0C1B041B0CAF
:1013100003911900180079438C466843754365446E
:10132000A846050C45447743A94203D980214902C8
:101330008C466744290C8C4639000004000C2D04AF
:101340002D186144AB4405915946049101990F044D
:101350003F0C080C390051434243904602008C4632
:10136000090C8B4662437C4344445C44A04503D94A
:101370008021490288464244210C8846614609047E
:10138000090C8C4619004343794370437E430F0C8C
:10139000F6182404BE19644442448C46B34203D96F
:1013A00080235B0298464044029B61469846049B1A
:1013B000370443449B46AB45AD416B420D04059950
:1013C0002D0C8C467F196744FD18A8465D462D19E3
:1013D000A542A44193466442A446C344DC448F42E0
:1013E000BF4198459B4193459241A445A4415B422E
:1013F0007F421F43360C52426442BF192243BF183A
:10140000624638184302D20D039913436A020A4315
:10141000501E82416146ED0D2A434E023243D901EE
:1014200000D4B3E00126500832400243DE073243C5
:101430005B08224C5444002C62DD510709D00F2078
:101440001040042805D0101D9042924152429B1832
:101450000200D90104D580241948E4000340544413
:101460001848844200DD27E75E075B02D2081F0BA5
:10147000630516435B0DB2E600239946013304274A
:1014800000269B4664E60323019781460C279B4672
:101490005EE6012201201743002276E603230320A3
:1014A0001F43434671E6C046FF07000001FCFFFFF3
:1014B0004C1E0000FFFF0F800DFCFFFFFF0300002C
:1014C000FFFFFFFEFE0700000023802700933F037D
:1014D0000026434B83E6019B3200A446584670E643
:1014E000AC466EE6802701993F0339422DD03B423E
:1014F0002BD11F433F033F0B00951600384B6EE680
:1015000001252D1B382D00DD66E61F2D40DC3548FA
:101510001C005044160082408440EE40501E824120
:1015200034431443EB40620709D00F222240042ABF
:1015300005D02200141D9442804140421B181A021B
:101540003ED501230027002649E68027019B3F0363
:101550001F433F033F0B0094214B40E603005A46D4
:10156000283B9A40002601926DE6584600F0BCFBED
:10157000203057E603005246283B9A4013000022D1
:1015800093E6504600F0B0FB20307BE6CA4650E7B9
:101590001F201E004042041BE640202D03D0124CA9
:1015A0005444A3401A43501E824132430726002769
:1015B000164009D00F200023104014000428B9D190
:1015C00022005E075B021F0BD2081643002306E6CB
:1015D00080273F031F433F033F0B1600004BFEE5F0
:1015E000FF0700001E0400003E040000F8B5574647
:1015F0004E464546DE460C000903E0B5490A460F53
:101600005F0031431E03DB0F760A9B46530F3343C3
:10161000C84E6500C000E40FD2006D0DA2468146A1
:101620007F0D9C469046B74200D1B9E05B4601264B
:1016300073409B46EE1BA34500D183E0002E63DD83
:10164000002F00D0B1E06346134300D123E1731EA5
:10165000002B00D0BAE1861A6346B04280410125D2
:10166000C91A4042091A0B0200D447E149024B0A49
:1016700098464346002B00D189E1404600F034FBF8
:101680000300083B1F2B00DD7CE120223000D21A32
:101690004146D040994002009E400A439D4200DDF1
:1016A0006AE15D1B6B1C1F2B00DD94E12021100003
:1016B0003500C91A8E40DA408840DD40711E8E41E7
:1016C000110007222843002506433240002A09D092
:1016D0000F233340042B05D0331DB342B64176426D
:1016E00089191E000B0200D43DE26A1C914B55057E
:1016F0006D0D9A4200D119E18F4AF6080A4057074A
:1017000052023743120B9BE0002E00D0C5E06E1C46
:101710007605760D012E00DC48E16746861ACB1B64
:10172000B042BF417F42B8461F004346FF1A3B000C
:10173000B8461B0200D55FE137439AD1002200244E
:10174000002579E0002E00DCFAE0002F00D18DE0CA
:10175000784B9D4267D0802367461B041F43BC46DD
:10176000382E00DC52E1634613435A1E93411E1883
:1017700086428041404209180B0200D4BEE06D4B06
:1017800001359D4200D1D2E06B4A73080A40012125
:101790000E401E435108D30707221E43324095E7EF
:1017A0001E00164300D045E740E7624B9D423AD009
:1017B000802367461B041F43BC46382E00DDEBE048
:1017C0001F2E00DC3AE133006746203BDF403B0040
:1017D000202E05D04027BF1B6646BE4032439046B0
:1017E0004646721E96413343DAE0002B00D114E2E4
:1017F0006346134300D168E180234E07C008C9083F
:101800001B030643194208D06046C008184204D1A1
:1018100063460100D2085E071643F3009946C900EB
:10182000720F444D11434B46DE08424B4F0737437E
:10183000CA089D4200D16EE012036D05120B6D0DBA
:1018400000211203130B0A0D12051A433B4B2D0501
:1018500013402B435B00E4075B0823433800190067
:101860003CBC90469946A246AB46F8BD634613433E
:1018700011D0731E002B00D007E1861886428041EC
:1018800061444042091801250B0237D502257BE748
:101890003E00614691463500C5E75C46002D00D00C
:1018A000E1E00B000343F3D0731C00D1ACE1214B0A
:1018B0009F4200D13AE1F343382B00DD6FE11F2B4B
:1018C00000DD8CE120250E00ED1AAE40B04606008A
:1018D000AA46DE40454635432E005546D940A8402D
:1018E0006346451EA8415B1A9C463043161AB24215
:1018F000924163465242991A3D00B4E607223240B3
:10190000002A00D0E4E60B4BF6084F073743CA081D
:101910009D4200D090E73B00134300D1A6E1802315
:101920001B031A431203120B024D89E71500002214
:10193000002785E7FF070000FFFF7FFFFFFF0F8005
:10194000002E00D0C7E06B1C5E05760D012E00DC7A
:10195000F0E0C84DAB4200D1B9E085180A008542DD
:1019600089416244494251180722CE076D082E432F
:10197000490832401D00A9E6BF49ED1A114007226F
:101980003240A3E6320028388240002686E6300046
:1019900000F0AAF9203073E6634613435A1E9341C0
:1019A000C61AB04280414042091A5CE60E00674602
:1019B00006431743002D5ED1002E00D0F3E0002F28
:1019C00000D11EE15C46614691462CE7A94FBE421C
:1019D0007BD01E00F1E610001F3DE840202B03D015
:1019E0004021CB1A9A401643731E9E41072206439C
:1019F00032400021002583E7161A6346B242804137
:101A0000591A40420B1A98465C4632E61F2E00DDFA
:101A1000ABE02027BB1B9A4663465746BB4099461E
:101A200013004F46F3401F433B005746BA40571E32
:101A3000BA4113436246F240891898E62027BB1B3F
:101A40009A4663465746BB40994613004F46F340BB
:101A50001F433B005746BA40571EBA4113436246E4
:101A6000F240891A9CE7834B9F425FD080252D046A
:101A70007342294320E7002E0CD1002F00D1D0E083
:101A80005C46614691467B4DCDE67A4FBE421CD006
:101A90001E0065E6002F18D0C0084E0706438020C0
:101AA000C9080003014208D06346DC08044204D19F
:101AB0002100DA46D2085E071643F3009946012456
:101AC0005346C900720F11431C406A4DABE61D001E
:101AD00000220027B4E6002D59D10B00034300D1AA
:101AE000D6E6731C00D1B2E0624B9F421ED0F34396
:101AF000382B6FDC1F2B00DD97E020250E00ED1A40
:101B0000AE40B0460600AA46DE40454635432E00AC
:101B10005546A840D940451EA8418C440643B618F6
:101B200096429241514261443D0025E63D006146A6
:101B3000914678E60B000343002D00D055E6002BBC
:101B4000F5D06346134300D16DE686188642804186
:101B500061444042091800220B0200D4D0E6464BF3
:101B600001351940B2E5B1465DE633006746203BDA
:101B7000DF403B00202E05D04027BF1B6646BE40FD
:101B8000324390464646721E96413343EFE5394B49
:101B90009F42CBD080252D0473422943A8E70843F8
:101BA000411E8841A2E6002F00D13CE66346861A1A
:101BB000CF1AB0429B415B42FB1A98461B024ED59E
:101BC000161A6346B2429241591A5242891A5C4629
:101BD00000227BE501430E00711E8E419FE71D0030
:101BE0000E00203DEE40B046202B04D04025EB1ADD
:101BF00099400843814648464346411E8841184360
:101C000074E60022002417E6161A6346B242924197
:101C1000591A5242891A3D0025E561469146154DF3
:101C200001E680220024120379E61D000E00203D0B
:101C3000EE40B046202B04D04025EB1A99400843D3
:101C400081464E464346711E8E411E4367E7861805
:101C500096429B4161445B42C9183D008CE5474672
:101C60003743CED007224146324049E600273A00AA
:101C7000E6E5C046FF070000FFFF7FFF30B5144DCB
:101C80000A034B00120B5B0DC90F0024AB4211DDA0
:101C9000104CA34210DC8024640322430E4CE41A4F
:101CA0001F2C0CDD0D48C31ADA4013005C420029DA
:101CB00000D11C00200030BD094BCC18FAE7094DBB
:101CC000E040AC4663449A4013000343EEE7C0464D
:101CD000FE0300001D040000330400001304000094
:101CE000FFFFFF7FEDFBFFFF1C2101231B04984238
:101CF00001D3000C10391B0A984201D3000A08399D
:101D00001B09984201D30009043902A2105C401853
:101D10007047C046040302020101010100000000F7
:101D200000000000000000000100000000000000B2
:101D3000010000000000000002000000020000009E
:101D4000020000000200000002000000010000008C
:101D5000000000000100000002000000010000007F
:101D60000000000000000000000000000000000073
:101D7000000000000200000001000000020000005E
:101D8000010000000200000000000000030000004D
:101D90000100000004000000020000000300000039
:101DA000040000000500000006000000070000001D
:101DB0000100000008000000020000000800000010
:101DC0000000000007000000060000000500000001
:101DD00004000000030000000200000006000000F4
:101DE00000000000050000000100000010000000DD
:101DF0002000000040000000800000000001000002
:101E000000020000000400000008000000100000B4
:101E1000DD080000281E0000950B0000341E0000A5
:101E20006D0C0000401E0000F02A0000F05F000072
:101E3000F09C0000F03F0000F05B0000E08F00002D
:101E4000F03F0000705F0000E08A0000C012000058
:101E5000C2110000C2110000E0140000BC1100001B
:101E6000BC110000C8140000E0140000BC11000008
:101E7000C8140000BC110000E0140000D6140000DB
:0C1E8000D6140000D6140000E41400008A
:081E8C0001000000010000004C
:00000001FF
