:1000000000400020F3010000E9010000E9010000C8
:10001000A1010000A1010000A1010000A101000058
:10002000A1010000A1010000A1010000E901000000
:10003000A1010000A1010000E9010000E9010000A8
:10004000E9010000E9010000E9010000E901000008
:10005000E9010000A1010000E9010000E901000040
:10006000E9010000E9010000E9010000E9010000E8
:10007000E9010000E9010000E9010000E9010000D8
:10008000E9010000E9010000E9010000E9010000C8
:10009000E9010000E9010000E9010000E9010000B8
:1000A000E9010000E9010000A1010000A101000038
:1000B000A1010000A1010000A1010000A1010000B8
:1000C000F0B5DE4657464E464546E0B583B000F0F3
:1000D000F5FA002000F086FB00239846994601932C
:1000E0002B4E3CE001239C46E0444346033B5A1E12
:1000F00093415B4242461A409046022835D0254B38
:100100004A461A604346DB00234A9B589B46214BD4
:100110009A46D847051E0BDB00243100200000F072
:100120005BF90821300000F0D8F90134AC42F4DD6D
:1001300053464A461A60174D184C154F2B002200A3
:100140000521380000F026FA2900200000F0C8FA46
:100150000028F3D00F4B4A461A600128D9DD0D4B19
:10016000019A1A601D000D4C0B4F4346DB00FB1833
:1001700058682B002200052100F00CFA290020000D
:1001800000F0AEFA0128ADDC0028EED0B7E7C0469B
:100190007405002070050020CC260000E00300203C
:1001A00072B60C4B0C4A1A600C4A8020C001002128
:1001B00010600B4BC046C046C046013B002BF9D136
:1001C0001160084BC046C046C046013B002BF9D128
:1001D000EEE7C04614050050F0FF00000405005093
:1001E00040420F00400D030010B5FFF7D9FF10BDCE
:1001F000704710B5164A136803210B431360154A64
:10020000154B9A420DD20333144A9B1A9B080133B3
:100210009B0000220F4812498C58845004329A42A5
:10022000FAD1104A104B9A4209D2111D03335B1ABE
:10023000032083435B18002102C29A42FCD1FFF7DE
:10024000D7FFFFF73DFFFFF7D3FF20BFFDE7C04615
:1002500024050040000000200800002004000020C9
:100260008827000008000020A405002070B50028A1
:1002700012DB83109B00134A944663441C68C00041
:10028000FF221600864003252E40B4430A408240D8
:100290002A4022431A6070BD030008339B109B0064
:1002A000094A944663441C68C000FF221600864039
:1002B00003252E40B4430A4082402A4022431A605C
:1002C000E9E7C04600E400E01CED00E001238340C4
:1002D000014A13607047C04600E100E001238340FB
:1002E000014A13607047C04680E100E0012383406B
:1002F000014A13607047C04680E200E030B58022BA
:1003000092020240514251418023DB0403405C428F
:100310005C41002A04D1104805680120002D07D057
:100320000020002A04D00C4A1068002800D00420C5
:10033000002B0BD1084A5268002A05D0002B09D1A6
:10034000054B19605C6030BD0230F9E7024B5B6819
:10035000002BF5D00830F3E708000020F0B5D646B2
:100360004F464646C0B5174A0A60174A4A60174AC0
:100370008A608146164E3700643764229046804476
:10038000144B9C4616E00433142B0DD0EA58002A77
:10039000F9D0F25892008A18FC58A4006444A46C66
:1003A0001068041B1460EEE79A46D14414361437E3
:1003B000C14502D04D460023E8E71CBC9046994653
:1003C000A246F0BDF03F0000F05F0000F09F00008B
:1003D000E025000060260000F0B5DE4657464E4698
:1003E0004546E0B519281EDD002300E02B00193832
:1003F0005D425D41EDB21928F8DC002B14D1802359
:100400009B010B608023DB014B6080231B028B6010
:10041000002849DD002600220024264B9C46264B5E
:100420009946984621E00025244B0B60244B4B60F5
:10043000244B8B60ECE7B3009B199B189B0067462D
:10044000DF59BF00BA468A4463445B6E9B004B444D
:100450009B6C57463F68BB465B4457463B60013444
:100460000132042A19DC84421EDA002DE3D1B300E4
:100470009B199B189B000F4FDF59BF00BA468A4457
:100480000C4FBB465B445B6E9B0043449B6C5746E2
:100490003F68FB1A57463B60E1E70136042E03DC58
:1004A000844201DA0022E0E73CBC90469946A2462D
:1004B000AB46F0BDE025000060260000F03F0000E4
:1004C000F05F0000F09F0000400005D0C046C0462D
:1004D000C04601380028F9D17047F8B504000D1E58
:1004E00013DD0027094E236833600948FFF7ECFF4E
:1004F000636833600648FFF7E7FFA368336004488A
:10050000FFF7E2FF0137BD42EDD1F8BD0405005011
:1005100088130000F0B5D6464F4680B583B006007C
:100520008946100019000A9B9A460022174B01F0D9
:100530000FFA04000D0001F0C5FF009022002B000F
:100540000020124901F076FC01F0BCFF019000256B
:100550005346002B14DD0E4F02E00135AA450FD0A3
:10056000002433593B600098FFF7AEFF4B461B5900
:100570003B600198FFF7A8FF04340C2CF1D1ECE7A5
:1005800003B00CBC91469A46F0BDC0460088B3400B
:1005900004050050F0B5DE464F464646C0B504009F
:1005A000884693469946002923DD0027134D144EB3
:1005B00011E0236833601348FFF786FF63683360F8
:1005C0001048FFF781FFA36833600E48FFF77CFFF8
:1005D0000137B8450DD02868FFF790FE0028E8D015
:1005E0004B461B685A1C49460A609B005A46985065
:1005F000DFE71CBC90469946A346F0BD10050050AD
:100600000405005088130000F0B5DE4657464E46FC
:100610004546E0B583B007000E00100019000C9BA2
:1006200098460E9B9A460022214B01F091F9040056
:100630000D0001F047FF009022002B0000201C4914
:1006400001F0F8FB01F03EFF01904346002B27DD4F
:1006500000239946174B9B46174D12E000243B5947
:100660002B600098FFF730FF33592B600198FFF79C
:100670002BFF04340C2CF2D101239C46E144C845E5
:100680000ED05B461868FFF739FE0028E6D05346C7
:100690001B685A1C51460A609B000D9A9850DDE772
:1006A00003B03CBC90469946A246AB46F0BDC0465E
:1006B0000088B3401005005004050050044B054A63
:1006C0001A600023044A1360044A13607047C0464E
:1006D00014050050F0FF0000440700506807005068
:1006E000F0B583B001900B68002B24DD05000022DB
:1006F0000126022705E00132002809D104359A427B
:1007000006D0286830402C682742F4D00230F2E747
:100710009B1A002B0CDD9300019CE4185E4200251F
:100720002368A35101350B689B1A0434AB42F7DCF4
:100730000B6003B0F0BD0020FAE770B505000C00B7
:1007400021002800FFF7CCFF0328F9D070BDF0B5D9
:10075000CE4600B582B0019089461700134B0022A7
:100760001A60134E1D00134C31003868FFF734FE39
:100770002B00220005213000FFF70CFF290020008C
:10078000FFF7AEFF012808DC0028EDD0074B002260
:100790001A6002B004BC9146F0BD3B6801334B4582
:1007A00000DD019B3B600228DED0EFE770050020F2
:1007B00074050020E0030020064A1068064B4343FE
:1007C00006498C466344434305498C4663441360A1
:1007D0007047C04610000020318C24049D48DA0484
:1007E000A3A4930510B5034B1860FFF7E5FFFFF7CF
:1007F000E3FF10BD1000002070B5174B1B68192BCC
:100800001ED0FFF7D9FF144B1B681921C91A00F03D
:10081000ADFC002914DB104C0434002501225242A7
:1008200015E00133052B0CD08A4209DA98002058D4
:100830000028F6D001329142F3D1074A9566D3667B
:1008400070BD0135052DFBD014348A42F8DA91428F
:10085000F6DD0023EAE7C0461400002070B51A4B0D
:100860001900643100221A605A609A60DA601A61D5
:1008700014339942F7D1154B1B68002B11DD144A34
:100880005800C018800080180F4D012411688B009B
:100890005B1851688C4663449B005C510C3290425B
:1008A000F4D1094C0B492000FFF758FD074A916E1F
:1008B0008B005B18D26E9B189B0001221A510649CF
:1008C0002000FFF74BFD70BD7C03002014000020CA
:1008D000980000208005002074050020F8B5DE4651
:1008E00057464E464546E0B5A2490B1D68310122E8
:1008F0001A605A609A60DA601A6114339942F7D12B
:100900009C4A032414609C4B01251D600220586002
:10091000002199601162D8601861596151639C612E
:10092000D8611962916455679167D467FFF764FFD6
:10093000924C22000F210120FFF709FF22681423A7
:100940009B1A8F4A13608B4B9B468B4B0C22524257
:1009500094466344994665E0864A936F01339367F2
:10096000844B9B6F002B00DA96E0042B00D09BE0B9
:10097000804B00229A67804B19685868013900291A
:1009800000DAA7E04B1F5A1E93415B421940002832
:1009900000DAA1E0431F5A1E93415B421840754B99
:1009A0001D686B1E5C00E418A400734A1419A26849
:1009B000002A00D192E00022A2606B1C9A466D4B87
:1009C00052461A606B4B1A68531E002B0EDD530003
:1009D0009B189B00183B684A944663441A000C32EB
:1009E0001D00D0CDD0C20C3B4B45F7D1624B1960F6
:1009F000586000229A605F4B9B6E994200D18EE056
:100A00008B005B181B189B005A4AD3185B68002B9D
:100A100000D19AE08B005918081880005549081831
:100A2000002343605B465B6F002B00D193E0FFF730
:100A300015FF534B1C680321200000F09BFB0700AF
:100A40006000032100F096FBC31B9A46231A9846C8
:100A50004C4D4D4C4D4E2B00220039003000FFF71D
:100A600099FD2B00220051464948FFF793FD2B00CA
:100A7000220041463000FFF78DFD29002000FFF7DE
:100A80005CFE022800D167E7012800D068E7394AF8
:100A9000936F013B936763E7364B03229A67364BAC
:100AA0001968586801386AE7334B19685868314B40
:100AB0009B6F012B0CD003DD022B05D101315EE7CA
:100AC000002B00D05BE759E7032B00D057E7E9E79D
:100AD000013054E704215AE7042060E76A1C92467B
:100AE000254A94466A00521992005C00A046E51817
:100AF000AD0062446544D0CDD0C24246D2189200C7
:100B00006446125943449F00674493009B187A68D7
:100B10009B189B00174AD31801225A6052E7154BC5
:100B2000DB6E984200D06BE7134B01329A60114C98
:100B30008B00591808188000201800234360FFF725
:100B40005BFEE36F0133E3676CE7130000225A6733
:100B500052461A6066E7FFF781FE28210B48FFF72F
:100B6000BCFC044BD86F3CBC90469946A246AB46B1
:100B7000F8BDC046140000209800002000000020AE
:100B80009400002070050020E00300207405002080
:100B9000800500200520704770B504000D00294A2B
:100BA000166883001B185B189B00D3185E60012831
:100BB00014DD002910DD013983001B185B189B0030
:100BC000D318DB6F002B07D083001B185B189B002A
:100BD000D3185B689E4216D1032D17DD002C11DD62
:100BE000013CA3001B195B199B00164AD318DB6F4D
:100BF000002B07D0A3001B195B199B00D3185B685F
:100C00009E4219D170BDFFF7C7FFE5E7691CA3003D
:100C10001B195B189B000B4AD318DB6F002BDDD030
:100C2000A3001B195B189B00D3185B689E42D5D0AC
:100C30002000FFF7B1FFD1E729002000FFF7ACFF4C
:100C4000E0E7C046DC010020F0B5DE4657464E46E0
:100C50004546E0B587B083463C4B1A68541C1C607F
:100C60003B4B996F586F0130FFF796FF002300222E
:100C700000218A4635487C3034490D1DA846AC46D3
:100C80000BE0514689006E460436725001218946B8
:100C9000CA4401320433052A17D019580029F8D064
:100CA0005959A142F5D1002A06DD1F1FB9466746F2
:100CB0004E46BE59B142E4D0032AEADC9946C1440B
:100CC0004E467668B142E4D1DBE75346002B12D1A1
:100CD0001F4BDB6F5B4507DD1E4A136899005118F7
:100CE000584648600133136007B03CBC90469946B3
:100CF000A246AB46F0BDFFF75FFD514600F036FA65
:100D0000890001ABCB58124AD26F5A450DD05A46D2
:100D1000D700104AD719012252427A63BB639B0065
:100D20000A4AD3180022DA67DEE70A49096800296F
:100D300007D00139074A1160890051184A68934663
:100D4000E5E701320249CA67E1E7C046DC0100205D
:100D50005C020020DC020020F8B5224B190064314F
:100D600000221A605A609A60DA601A61143399425C
:100D7000F7D11D4BDD6F002D20DD1C4B3433ED0012
:100D8000ED181848012602E008339D4216D01F00D6
:100D90001A68042A06D89400A41859688C4664443A
:100DA000A4002650541E042CEED82200A400A21841
:100DB0007C68121992000B495650E5E7094C0C4922
:100DC0002000FFF7CBFA084A516F8B005B18926F37
:100DD0009B189B0001221A5106492000FFF7BEFA1A
:100DE000F8BDC0467C0300205C020020DC0200202D
:100DF0008005002074050020F0B5DE4657464E46BB
:100E00004546E0B589B08A490B007C33F4310122B4
:100E10001A605A609A60DA601A6114338B42F7D113
:100E2000844A04235367023B9367834C013B63610D
:100E30000023A361D367814A13600020FFF704FFFA
:100E40007F4D2A000A210120FFF781FC2B680E222A
:100E5000D21A53009A18D30F9B185B10E361764D9A
:100E6000744F09239A46724B9B46534605930024C0
:100E700031E0704B9B6F0133042B0DDC6D4A516FD9
:100E800001318A005218D218920069498A18D26F2B
:100E9000002A01D0674A93676A496B48FFF74DFC07
:100EA000002813D00228E4D00128F5D1BB6F5A1EC8
:100EB000F2D4736F591C8B005B189B189B005B442A
:100EC000DB6F002BE8D05B4B9A67E5E701345A4BA8
:100ED000DB69A3421AD06B69002B00D190E0FFF7C9
:100EE0003BFF584B98460293574E019601230093BF
:100EF000564A574B57495848FFF786FB4146300042
:100F0000FFF71BFC0028E1D04A4ECBE7494BD86FD6
:100F100000286CDD5A6F9B6F9A46474B5B699C4675
:100F2000464C3434C0000019210000239846534633
:100F3000069307941400814604E0A64214D00831B9
:100F400049451AD008000A68561C0E60052AF4D8D4
:100F500093009B184A68924653449B00344A924639
:100F600053440122DA67E8E74368069A9A42E6D1D9
:100F70000123984600239C46E1E7079C4346002B4B
:100F800003D100262C4B99460BE02B4B62465A614D
:100F9000F7E7062B22D00136264BD86F083486425D
:100FA00025DA21002368581C05280AD88200121867
:100FB00060688446624492001D4884466244002072
:100FC000D067052BE5D89A00D218496852189200CC
:100FD00017498C4662440021D167DAE74B469B698A
:100FE00001334A4693613000FFF72EFED3E7059B9D
:100FF000013B0593002B00D039E7FFF725FE30E7D2
:10100000FFF7AAFE28211448FFF767FA0A4B9869F0
:1010100001F08EFA0022114B00F098F901F052FA1B
:1010200009B03CBC90469946A246AB46F0BDC046CE
:10103000DC0100205C0200205C030020DC020020B8
:101040000400002070050020E00300204C37894197
:1010500060E5A03F800500207405002000001440DA
:10106000002243088B4274D303098B425FD3030AE7
:101070008B4244D3030B8B4228D3030C8B420DD3FA
:10108000FF22090212BA030C8B4202D31212090288
:1010900065D0030B8B4219D300E0090AC30B8B42C6
:1010A00001D3CB03C01A5241830B8B4201D38B0374
:1010B000C01A5241430B8B4201D34B03C01A524119
:1010C000030B8B4201D30B03C01A5241C30A8B425C
:1010D00001D3CB02C01A5241830A8B4201D38B0247
:1010E000C01A5241430A8B4201D34B02C01A5241EB
:1010F000030A8B4201D30B02C01A5241CDD2C3095D
:101100008B4201D3CB01C01A524183098B4201D3D8
:101110008B01C01A524143098B4201D34B01C01AC3
:10112000524103098B4201D30B01C01A5241C3083B
:101130008B4201D3CB00C01A524183088B4201D3AA
:101140008B00C01A524143088B4201D34B00C01A96
:101150005241411A00D20146524110467047FFE702
:1011600001B5002000F0F0F802BDC0460029F7D01C
:1011700076E7704703460B437FD4002243088B4237
:1011800074D303098B425FD3030A8B4244D3030B0E
:101190008B4228D3030C8B420DD3FF22090212BAD3
:1011A000030C8B4202D31212090265D0030B8B424F
:1011B00019D300E0090AC30B8B4201D3CB03C01A39
:1011C0005241830B8B4201D38B03C01A5241430B14
:1011D0008B4201D34B03C01A5241030B8B4201D304
:1011E0000B03C01A5241C30A8B4201D3CB02C01A6F
:1011F0005241830A8B4201D38B02C01A5241430AE7
:101200008B4201D34B02C01A5241030A8B4201D3D5
:101210000B02C01A5241CDD2C3098B4201D3CB017C
:10122000C01A524183098B4201D38B01C01A52412B
:1012300043098B4201D34B01C01A524103098B422F
:1012400001D30B01C01A5241C3088B4201D3CB001A
:10125000C01A524183088B4201D38B00C01A5241FD
:1012600043088B4201D34B00C01A5241411A00D2AD
:1012700001465241104670475DE0CA0F00D0494216
:10128000031000D34042534000229C4603098B4286
:101290002DD3030A8B4212D3FC22890112BA030A0E
:1012A0008B420CD3890192118B4208D38901921190
:1012B0008B4204D389013AD0921100E08909C30915
:1012C0008B4201D3CB01C01A524183098B4201D317
:1012D0008B01C01A524143098B4201D34B01C01A02
:1012E000524103098B4201D30B01C01A5241C3087A
:1012F0008B4201D3CB00C01A524183088B4201D3E9
:101300008B00C01A5241D9D243088B4201D34B0003
:10131000C01A5241411A00D20146634652415B1045
:10132000104601D34042002B00D549427047634626
:101330005B1000D3404201B5002000F005F802BD6B
:101340000029F8D016E770477047C046F0B55746F9
:10135000DE464E464546E0B5834607000E0348008C
:1013600085B092461C00360B400DCD0F002800D1F1
:101370009DE0954B984239D08023F6001B041E4314
:10138000924A7B0F3343994694460300634400938B
:1013900000230026FF00029323031B0B98466300E3
:1013A000E40F52465B0D019400D1B3E086498B42B5
:1013B00000D19EE04246D100802212040A435146E9
:1013C000490F11438B46814952468C46009963442C
:1013D000CB1A0021D20000932B0063409A460F2EB7
:1013E00000D905E17A4BB6009B599F465B463343D3
:1013F000994600D0B8E00223082600270090029307
:10140000CAE7CB463A0002990195019B9A46022908
:1014100027D0032900D180E2012944D06D49009BE7
:101420008C4663441C00002C38DD530700D013E2C7
:10143000D2085B46DB0109D55946674B19408B46FC
:101440008021C9008C46009B63441C00634B9C4276
:1014500007DC5B4664055F075B0217431B0B620DED
:1014600002E000230027584A00211B031C0B0B0D30
:101470001B05234314055A4A380013401C435346A6
:101480006400DB0764081C43210005B03CBC9046A7
:101490009946A246AB46F0BD0122524201231B1BD6
:1014A000382B00DCADE1002200230027DCE75B469F
:1014B000334399465ED0002E00D18AE1300001F01E
:1014C00071F803000B3B1C2B00DD7BE11D22D31ABE
:1014D0005A460100DA4008398E4013005F46334314
:1014E00099468F403F4B00261B1A0093002302931E
:1014F00052E7414653460B433B499B468C46009B73
:10150000634400935B46002B3BD1022300221E4321
:10151000022161E7434613439B4637D04346002BE5
:1015200000D162E1404601F03DF803000B3B1C2B6B
:1015300000DD53E102004146083A914088461D21F2
:10154000CB1A5146D9400B0041460B439B465346AC
:1015500093401A00009B25499C46604403008C463A
:1015600063440093002137E70323B14600900C2623
:10157000029311E70023009301330426002702930E
:101580000AE70323C3461E43032125E701331E4315
:101590000022012120E700239A46802300271B0315
:1015A000094A61E7802349461B03194200D1E2E062
:1015B0005946194200D0DEE00B431B0317001B0BFA
:1015C000A246014A50E7C046FF07000001FCFFFFAA
:1015D00008270000FF030000FFFFFFFEFE070000DA
:1015E000FFFF0F800DFCFFFF01F8FFFFF30300007A
:1015F000D94500D9CBE000D1C6E03C0048460027E1
:10160000009B013B00935B46160E1B021E43130218
:10161000984633041B0C9946310C0191FFF7A6FD47
:101620004A4642430B04210C050019438A4207D95C
:101630008919013D8E4203D88A4201D9851E891934
:10164000881A0199FFF792FD09048C464A46210445
:1016500064464243090C030021438A4204D9891994
:10166000013B8E4200D8F1E02D041D43AB464346BA
:10167000891A4246280C12041D0C5B46140C2200E9
:101680001B041B0C5A4303946B4344430295684369
:101690001B19150CEB189C4203D980246402A44644
:1016A00060441C0C15041B042D0C20185D1981428C
:1016B00077D373D00C1AA24A7D1BAF42BF41944628
:1016C000009B7F426344E01B1C00864200D1DBE0AC
:1016D0000199FFF74BFD4A4642430B04290C0700D2
:1016E00019438A4207D98919013F8E4203D88A4299
:1016F00001D9871E8919881A0199FFF737FD090456
:101700004A46894629044D464243090C03002943B1
:101710008A4207D98919013B8E4203D88A4201D9EE
:10172000831E89193F04891A3A00039F1A4338001F
:1017300013041B0C584381460298150C6F43434316
:1017400045434846000C8446DB1963449F4203D955
:10175000802040028446654448461F0C00041B0458
:10176000000C7D191818A94200D284E000D17FE056
:1017700001231A4357E680234A461B0313431B03E6
:101780001B0BAA466F4A6FE6BA4200D935E74B46B3
:10179000DC0758087B081C43FF0734E70024AF42EE
:1017A00089D247444745A4415B466442A419641862
:1017B000013BA6421ED2A0426DD800D1B6E0241A49
:1017C0009B4678E703005A46283B9A4000279146FB
:1017D00088E6584600F0E6FE203072E603005246E6
:1017E000283B9A4093460022B4E6504600F0DAFEC9
:1017F00020309AE6A642E2D1B845DCD9341A9B469D
:1018000059E71F2B65DC504C0099A4465C466144A7
:1018100008008C4011008240D940501E82410C4388
:1018200014435A46DA401300620709D00F222240BF
:10183000042A05D02200141D9442894149425B18B4
:101840001A0262D50122002300270DE68A4200D841
:101850000AE7831E891907E70F231340042B00D1E1
:10186000E6E5171D9742924153429B44FA08E0E592
:10187000002800D1D7E57118531EB14227D3A942E1
:1018800015D358D01A0073E7002B00DC04E60123BF
:1018900000229B44CDE502234744474589415B42F2
:1018A0009C46494289190C19E344241A03E743462C
:1018B0005F0047459B41B8465B429E19023A891931
:1018C000A94200D054E7404500D051E7ABE51A00EB
:1018D000F6E71F215F4649420C1BE740202B07D04B
:1018E0001A49009B8C46634418005B4683401A43A8
:1018F000501E82413A4307270023174009D00F2189
:10190000002311401400042995D122005F075B02D7
:101910001B0BD20817430022A6E5802359461B0360
:101920000B431B0317001B0B064A9DE5BD42B2D8B3
:101930009B460024BFE68045B9D31A00C3E7C046E2
:10194000FF030000FF0700001E0400003E0400002B
:10195000F0B55746DE464E464546E0B5834606009E
:101960000F03480087B092461D003F0B400DCC0F7F
:10197000002800D16FE0DE4B984238D08023FF0072
:101980001B041F43730F3B430193DA4B0027994617
:1019900000239B46F60081442B0369001B0B524633
:1019A0009846490DED0F002900D185E0D04B9942B2
:1019B00000D173E04346DA0080231B0413435246F0
:1019C000CC48520F84461343524600206144D20053
:1019D00089442100694000918C46012149448A468E
:1019E0000F2F00D990E0C449BF00CF59BF465B46D6
:1019F0003B43019300D06AE1022308270026814679
:101A00009B46C9E732005846019B61460091022877
:101A100000D175E0032800D1FEE1012800D02CE1BF
:101A200000230027002600253F032A0D3F0BB34863
:101A300012053A4302401B051343009A5B00D1078D
:101A40005B080B433000190007B03CBC9046994638
:101A5000A246AB46F0BD5B463B43019300D12FE16C
:101A6000002F00D1A5E1380000F09CFD03000B3BE6
:101A70001C2B00DD96E11D22D31A5A460100DA40E4
:101A80005E4608398F4013008E403B4301939C4BC8
:101A900000271B1A994600239B467DE74146534683
:101AA0000B4393498C46E144002B00D01AE10222FB
:101AB0000220174300228CE7134300D10DE1434677
:101AC000002B00D181E1404600F06CFD02000B3A92
:101AD0001C2A00DD72E10100434608398B4098461C
:101AE0001D239A1A5346D3401A00434613435246C5
:101AF0008A404946081A824989468144002068E79D
:101B00007B4B002700268EE7140C1204120C1100E8
:101B1000370C3604350C794328008C462E00604380
:101B20006044834656432100300C80465846794332
:101B300040440291844506D98846802149028C465A
:101B4000E044414602913604010C360C00048B46F9
:101B500081191E0C1B041B0C0391190018007943FA
:101B60008C46684375436544A846050C4544774355
:101B7000A94203D9802149028C466744290C8C462E
:101B800039000004000C2D042D186144AB4405916C
:101B90005946049101990F043F0C080C3900514338
:101BA0004243904602008C46090C8B4662437C43BC
:101BB00044445C44A04503D98021490288464244FC
:101BC000210C884661460904090C8C4619004343E0
:101BD000794370437E430F0CF6182404BE19644405
:101BE00042448C46B34203D980235B02984640446A
:101BF000029B61469846049B370443449B46AB4591
:101C0000AD416B420D0405992D0C8C467F1967443C
:101C1000FD18A8465D462D19A542A441934664428D
:101C2000A446C344DC448F42BF4198459B41934541
:101C30009241A445A4415B427F421F43360C52426D
:101C40006442BF192243BF18624638184302D20DBE
:101C5000039913436A020A43501E82416146ED0D07
:101C60002A434E023243D90100D4B3E00126500882
:101C700032400243DE0732435B08224C5444002CBE
:101C800062DD510709D00F201040042805D0101D37
:101C90009042924152429B180200D90104D58024FF
:101CA0001948E400034054441848844200DD27E703
:101CB0005E075B02D2081F0B630516435B0DB2E69D
:101CC000002399460133042700269B4664E603233C
:101CD000019781460C279B465EE6012201201743AF
:101CE000002276E6032303201F43434671E6C046E5
:101CF000FF07000001FCFFFF48270000FFFF0F80E7
:101D00000DFCFFFFFF030000FFFFFFFEFE070000CA
:101D10000023802700933F030026434B83E6019B6B
:101D20003200A446584670E6AC466EE6802701991C
:101D30003F0339422DD03B422BD11F433F033F0B82
:101D400000951600384B6EE601252D1B382D00DD61
:101D500066E61F2D40DC35481C00504416008240CA
:101D60008440EE40501E824134431443EB406207EE
:101D700009D00F222240042A05D02200141D9442CB
:101D8000804140421B181A023ED50123002700263D
:101D900049E68027019B3F031F433F033F0B00940D
:101DA000214B40E603005A46283B9A400026019208
:101DB0006DE6584600F0F6FB203057E60300524629
:101DC000283B9A401300002293E6504600F0EAFBBD
:101DD00020307BE6CA4650E71F201E004042041B0D
:101DE000E640202D03D0124C5444A3401A43501E09
:101DF0008241324307260027164009D00F200023D6
:101E0000104014000428B9D122005E075B021F0BAA
:101E1000D2081643002306E680273F031F433F03F3
:101E20003F0B1600004BFEE5FF0700001E040000FC
:101E30003E040000F8B557464E464546DE460C00C7
:101E40000903E0B5490A460F5F0031431E03DB0F6B
:101E5000760A9B46530F3343C84E6500C000E40F1B
:101E6000D2006D0DA24681467F0D9C469046B7423A
:101E700000D1B9E05B46012673409B46EE1BA345AB
:101E800000D183E0002E63DD002F00D0B1E0634677
:101E9000134300D123E1731E002B00D0BAE1861A50
:101EA0006346B04280410125C91A4042091A0B021B
:101EB00000D447E149024B0A98464346002B00D123
:101EC00089E1404600F06EFB0300083B1F2B00DD5C
:101ED0007CE120223000D21A4146D04099400200D5
:101EE0009E400A439D4200DD6AE15D1B6B1C1F2B77
:101EF00000DD94E1202110003500C91A8E40DA403F
:101F00008840DD40711E8E411100072228430025C4
:101F100006433240002A09D00F233340042B05D05A
:101F2000331DB342B641764289191E000B0200D41C
:101F30003DE26A1C914B55056D0D9A4200D119E1A5
:101F40008F4AF6080A40570752023743120B9BE0AC
:101F5000002E00D0C5E06E1C7605760D012E00DC4B
:101F600048E16746861ACB1BB042BF417F42B84664
:101F70001F004346FF1A3B00B8461B0200D55FE135
:101F800037439AD100220024002579E0002E00DC9E
:101F9000FAE0002F00D18DE0784B9D4267D080237E
:101FA00067461B041F43BC46382E00DC52E16346E3
:101FB00013435A1E93411E1886428041404209181D
:101FC0000B0200D4BEE06D4B01359D4200D1D2E042
:101FD0006B4A73080A4001210E401E435108D30783
:101FE00007221E43324095E71E00164300D045E706
:101FF00040E7624B9D423AD0802367461B041F4353
:10200000BC46382E00DDEBE01F2E00DC3AE1330049
:102010006746203BDF403B00202E05D04027BF1BFA
:102020006646BE40324390464646721E9641334352
:10203000DAE0002B00D114E26346134300D168E1DB
:1020400080234E07C008C9081B030643194208D065
:102050006046C008184204D163460100D2085E07FA
:102060001643F3009946C900720F444D11434B4685
:10207000DE08424B4F073743CA089D4200D16EE04D
:1020800012036D05120B6D0D00211203130B0A0DC7
:1020900012051A433B4B2D0513402B435B00E4070D
:1020A0005B082343380019003CBC90469946A24681
:1020B000AB46F8BD6346134311D0731E002B00D00E
:1020C00007E1861886428041614440420918012593
:1020D0000B0237D502257BE73E006146914635006D
:1020E000C5E75C46002D00D0E1E00B000343F3D0D0
:1020F000731C00D1ACE1214B9F4200D13AE1F34384
:10210000382B00DD6FE11F2B00DD8CE120250E0058
:10211000ED1AAE40B0460600AA46DE4045463543BD
:102120002E005546D940A8406346451EA8415B1A7B
:102130009C463043161AB242924163465242991A63
:102140003D00B4E607223240002A00D0E4E60B4B03
:10215000F6084F073743CA089D4200D090E73B007E
:10216000134300D1A6E180231B031A431203120B71
:10217000024D89E715000022002785E7FF070000D0
:10218000FFFF7FFFFFFF0F80002E00D0C7E06B1C1A
:102190005E05760D012E00DCF0E0C84DAB4200D1AB
:1021A000B9E085180A0085428941624449425118C4
:1021B0000722CE076D082E43490832401D00A9E6CC
:1021C000BF49ED1A114007223240A3E632002838F9
:1021D0008240002686E6300000F0E4F9203073E605
:1021E000634613435A1E9341C61AB042804140428F
:1021F000091A5CE60E00674606431743002D5ED1C0
:10220000002E00D0F3E0002F00D11EE15C466146B5
:1022100091462CE7A94FBE427BD01E00F1E610008C
:102220001F3DE840202B03D04021CB1A9A40164393
:10223000731E9E410722064332400021002583E79A
:10224000161A6346B2428041591A40420B1A984608
:102250005C4632E61F2E00DDABE02027BB1B9A4612
:1022600063465746BB40994613004F46F3401F4311
:102270003B005746BA40571EBA4113436246F240EC
:10228000891898E62027BB1B9A4663465746BB40F1
:10229000994613004F46F3401F433B005746BA4050
:1022A000571EBA4113436246F240891A9CE7834B9A
:1022B0009F425FD080252D047342294320E7002EE2
:1022C0000CD1002F00D1D0E05C46614691467B4D99
:1022D000CDE67A4FBE421CD01E0065E6002F18D016
:1022E000C0084E0706438020C9080003014208D0F9
:1022F0006346DC08044204D12100DA46D2085E07B6
:102300001643F300994601245346C900720F114346
:102310001C406A4DABE61D0000220027B4E6002DEC
:1023200059D10B00034300D1D6E6731C00D1B2E0B3
:10233000624B9F421ED0F343382B6FDC1F2B00DD16
:1023400097E020250E00ED1AAE40B0460600AA46E2
:10235000DE40454635432E005546A840D940451E2F
:10236000A8418C440643B6189642924151426144BA
:102370003D0025E63D006146914678E60B000343AB
:10238000002D00D055E6002BF5D06346134300D155
:102390006DE6861886428041614440420918002259
:1023A0000B0200D4D0E6464B01351940B2E5B146E8
:1023B0005DE633006746203BDF403B00202E05D022
:1023C0004027BF1B6646BE40324390464646721EBB
:1023D00096413343EFE5394B9F42CBD080252D0406
:1023E00073422943A8E70843411E8841A2E6002F13
:1023F00000D13CE66346861ACF1AB0429B415B424D
:10240000FB1A98461B024ED5161A6346B2429241F9
:10241000591A5242891A5C4600227BE501430E009C
:10242000711E8E419FE71D000E00203DEE40B0461C
:10243000202B04D04025EB1A99400843814648469A
:102440004346411E8841184374E60022002417E6E3
:10245000161A6346B2429241591A5242891A3D00F5
:1024600025E561469146154D01E6802200241203C0
:1024700079E61D000E00203DEE40B046202B04D032
:102480004025EB1A9940084381464E464346711E4B
:102490008E411E4367E7861896429B4161445B422A
:1024A000C9183D008CE547463743CED00722414648
:1024B000324049E600273A00E6E5C046FF07000043
:1024C000FFFF7FFF30B5144D0A034B00120B5B0D6D
:1024D000C90F0024AB4211DD104CA34210DC802454
:1024E000640322430E4CE41A1F2C0CDD0D48C31A62
:1024F000DA4013005C42002900D11C00200030BDEE
:10250000094BCC18FAE7094DE040AC4663449A40C9
:1025100013000343EEE7C046FE0300001D04000065
:102520003304000013040000FFFFFF7FEDFBFFFFFB
:1025300070B500282DD0C317C5185D40C40F280002
:1025400000F030F8154B1B1A5B055B0D0A2815DDF2
:102550000B38854000222D032D0B002110002D0388
:102560000A0D2D0B12052A430D4D1B052A4013435E
:102570005B00E4075B082343190070BD02002900DB
:10258000153291400A000B21081AC5402D032D0B6E
:10259000E3E70024002300250022DEE71E040000FC
:1025A000FFFF0F801C2101231B04984201D3000C64
:1025B00010391B0A984201D3000A08391B099842B6
:1025C00001D30009043902A2105C40187047C046CC
:1025D00004030202010101010000000000000000EC
:1025E00000000000010000000000000001000000E9
:1025F00000000000020000000200000002000000D5
:1026000002000000020000000100000000000000C5
:1026100001000000020000000100000000000000B6
:1026200000000000000000000000000000000000AA
:102630000200000001000000020000000100000094
:102640000200000000000000030000000100000084
:10265000040000000200000003000000040000006D
:102660000500000006000000070000000100000057
:102670000800000002000000080000000000000048
:102680000700000006000000050000000400000034
:10269000030000000200000006000000000000002F
:1026A00005000000010000001000000020000000F4
:1026B0004000000080000000000100000002000057
:1026C000000400000008000000100000DD08000009
:1026D000E4260000950B0000F0260000F90D000034
:1026E000FC260000F02A0000F05F0000F09C0000D3
:1026F000F03F0000F05B0000E08F0000F03F0000C2
:10270000705F0000E08A0000F01500006214000015
:10271000A61400000A140000A6140000961500007C
:10272000A61400000A1400006214000062140000E5
:10273000961500000A1400000214000002140000A4
:1027400002140000A4150000081B00000A1A000073
:102750000A1A0000281D0000041A0000041A0000D4
:10276000101D0000281D0000041A0000101D0000AC
:10277000041A0000281D00001E1D00001E1D000080
:082780001E1D00002C1D0000CD
:08278800010000000100000047
:00000001FF
