:10000000004000201B02000011020000110200004D
:10001000C9010000C9010000C9010000C9010000B8
:10002000C9010000C9010000C9010000110200005F
:10003000C9010000C9010000110200001102000006
:100040001102000011020000110200001102000064
:1000500011020000C901000011020000110200009D
:100060001102000011020000110200001102000044
:100070001102000011020000110200001102000034
:100080001102000011020000110200001102000024
:100090001102000011020000110200001102000014
:1000A0001102000011020000C9010000C901000096
:1000B000C9010000C9010000C9010000C901000018
:1000C00070B5061E0CDB0024134D2900200000F043
:1000D00067F90821280000F0E4F90134A642F4DAB7
:1000E0000E4B00221A601D000D4C0B4E2B002200FF
:1000F0000521300000F026FA2900200000F05CFA0B
:100100000028F3D00022054B1A60C30F0121814261
:100110005341180070BDC046C8030020C40300202E
:100120003402002010B5C000014BC358984710BDE1
:10013000780E0000C3000248C01840687047C046EF
:10014000780E0000F8B50600124B00221A601D0060
:10015000114C124F3368DB00FB1858682B0022004B
:10016000052100F0EFF92900200000F025FA012810
:1001700005DC0028EED0074B00221A60F8BD33687A
:100180009A1E0133511E8A415242134033600228A5
:10019000E0D0F0E7C403002034020020780E000015
:1001A00000B583B000F035FA002000F059FA0023C2
:1001B000019301A8FFF7C6FF0198FFF7B3FFFFF710
:1001C0007FFF0028F8D1F4E772B60C4B0C4A1A6096
:1001D0000C4A8020C001002110600B4BC046C04675
:1001E000C046013B002BF9D11160084BC046C04608
:1001F000C046013B002BF9D1EEE7C0461405005084
:10020000F0FF00000405005040420F00400D0300C5
:1002100010B5FFF7D9FF10BD704710B5164A136827
:1002200003210B431360154A154B9A420DD2033339
:10023000144A9B1A9B0801339B0000220F48124965
:100240008C58845004329A42FAD1104A104B9A4288
:1002500009D2111D03335B1A032083435B1800216D
:1002600002C29A42FCD1FFF7D7FFFFF799FFFFF7D1
:10027000D3FF20BFFDE7C04624050040000000205A
:100280000400002004000020B40E00000400002040
:10029000E803002070B5002812DB83109B00134A8E
:1002A000944663441C68C000FF2216008640032564
:1002B0002E40B4430A4082402A4022431A6070BD57
:1002C000030008339B109B00094A944663441C6852
:1002D000C000FF221600864003252E40B4430A408A
:1002E00082402A4022431A60E9E7C04600E400E069
:1002F0001CED00E001238340014A13607047C046B3
:1003000000E100E001238340014A13607047C046CA
:1003100080E100E001238340014A13607047C0463A
:1003200080E200E0F0B5D6464F464646C0B5174AD3
:100330000A60174A4A60174A8A608146164E37009B
:100340006437642290468044144B9C4616E0043384
:10035000142B0DD0EA58002AF9D0F25892008A18CE
:10036000FC58A4006444A46C1068041B1460EEE7FD
:100370009A46D14414361437C14502D04D46002365
:10038000E8E71CBC90469946A246F0BDF03F00004D
:10039000F05F0000F09F00008C0D00000C0E0000CC
:1003A000F0B5DE4657464E464546E0B519281EDDF7
:1003B000002300E02B0019385D425D41EDB21928A1
:1003C000F8DC002B14D180239B010B608023DB0120
:1003D0004B6080231B028B60002849DD0026002231
:1003E0000024264B9C46264B9946984621E0002542
:1003F000244B0B60244B4B60244B8B60ECE7B30029
:100400009B199B189B006746DF59BF00BA468A4478
:1004100063445B6E9B004B449B6C57463F68BB46F6
:100420005B4457463B6001340132042A19DC8442A4
:100430001EDA002DE3D1B3009B199B189B000F4FD0
:10044000DF59BF00BA468A440C4FBB465B445B6E23
:100450009B0043449B6C57463F68FB1A57463B60E2
:10046000E1E70136042E03DC844201DA0022E0E7F2
:100470003CBC90469946A246AB46F0BD8C0D0000B0
:100480000C0E0000F03F0000F05F0000F09F000045
:10049000400005D0C046C046C04601380028F9D10A
:1004A0007047F8B504000D1E13DD0027094E2368C0
:1004B00033600948FFF7ECFF636833600648FFF7D5
:1004C000E7FFA36833600448FFF7E2FF0137BD424E
:1004D000EDD1F8BD040500508813000030B580222E
:1004E00092020240514251418023DB0403405C42AE
:1004F0005C41002A04D1114805680120002D07D075
:100500000020002A04D00D4A1068002800D00420E2
:10051000002B0CD10A4A1268002A06D0002B0AD1FF
:10052000064B1960064B1C6030BD0230F8E7044BE7
:100530001B68002BF4D00830F2E7C046E00300202F
:10054000E4030020F0B5DE464F464646C0B5040041
:10055000884693469946002923DD0027134D144E03
:1005600011E0236833601348FFF792FF636833603C
:100570001048FFF78DFFA36833600E48FFF788FF30
:100580000137B8450DD02868FFF7A8FF0028E8D04C
:100590004B461B685A1C49460A609B005A469850B5
:1005A000DFE71CBC90469946A346F0BD10050050FD
:1005B0000405005088130000F0B583B001900B686B
:1005C000002B24DD050000220126022705E0013270
:1005D000002809D104359A4206D0286830402C689A
:1005E0002742F4D00230F2E79B1A002B0CDD930077
:1005F000019CE4185E4200252368A35101350B6875
:100600009B1A0434AB42F7DC0B6003B0F0BD002052
:10061000FAE7044B044A1A600023044A1360044AB0
:100620001360704714050050F0FF000044070050AD
:1006300068070050064A1068064B434306498C463B
:100640006344434305498C46634413607047C04686
:1006500004000020318C24049D48DA04A3A49305EF
:1006600010B5034B1860FFF7E5FFFFF7E3FF10BD80
:100670000400002070B5174B1B68192B1ED0FFF724
:10068000D9FF144B1B681921C91A00F08FFA0029F1
:1006900014DB104C043400250122524215E00133D2
:1006A000052B0CD08A4209DA980020580028F6D091
:1006B00001329142F3D1074A9566D36670BD013588
:1006C000052DFBD014348A42F8DA9142F6DD00237E
:1006D000EAE7C04608000020F8B5174E174F184D3E
:1006E00031003868FFF75CFE164C2B002200052114
:1006F0003000FFF727FF29002000FFF75DFF0128EA
:100700000BDC0028ECD00D4B1A6811239B1A0E4A03
:1007100053670B4B00221A60F8BD084B1B6801336E
:100720000F2B04DC054A13600228D9D0EBE7034BFA
:1007300001221A60F8E7C046C8030020000000202C
:10074000C4030020340200200800002070B51449C2
:100750000B1D683101221A605A609A60DA601A61D2
:1007600014338B42F7D10E4903240C600D4B012545
:100770001D600220586000229A600A62D8601861E9
:100780005A614A639C61D8611A628A648D67CA673C
:10079000054B1C60FFF76EFFFFF79EFF70BDC04664
:1007A000080000208C0000208800002070B51A4B43
:1007B0001900643100221A605A609A60DA601A6186
:1007C00014339942F7D1154B1B68002B11DD144AE5
:1007D0005800C018800080180F4D012411688B004C
:1007E0005B1851688C4663449B005C510C3290420C
:1007F000F4D1094C0B492000FFF794FD074A916E94
:100800008B005B18D26E9B189B0001221A5106497F
:100810002000FFF787FD70BDD001002008000020F8
:100820008C000020D4030020C8030020F8B5FFF797
:10083000BDFF104D104C114E0321706F00F0BAF93E
:1008400001000F4F2B0022003800FFF77BFE736F73
:100850005800032100F0AEF901002B0022000948E6
:10086000FFF770FE716F2B0022003800FFF76AFE61
:10087000F8BDC046C4030020340200200800002058
:10088000C8030020D403002070B5154B1B68002B53
:1008900017D0134C134D21002800FFF78DFE23685D
:1008A000002B01D00328F6D0022806D0012808D159
:1008B0000D4AD36F013BD36703E00B4AD36F01337B
:1008C000D367094BDB6F002B05DB042B02D1064BF2
:1008D0000022DA6770BD044B0322DA67FAE7C046EC
:1008E000C40300203402002008000020F8B5CE46E2
:1008F000474680B5554B19685C68554BDB6F012B3B
:100900005FD006DD022B5ED0033B5A425341E41A0E
:1009100002E05A425341C91A002956DB4B1F5A1EA6
:1009200093415B421940002C51DB631F5A1E9341D7
:100930005B421C40464B1E68731E5800C018800066
:10094000424A10188268002A43D000228260731C39
:1009500099463F4B4A461A603D4B1A68531E002B7E
:1009600011DD53009B189B00183B38481B180C22C4
:100970005242944684441A000C321E00A1CEA1C2F9
:100980000C3B6345F7D1314B19605C6000229A60E3
:100990002F4B9B6E8B423DD08B005B181B199B002D
:1009A0002B4AD3185B68002B4AD08B0059180C19BE
:1009B000A40027490C19002363600CBC904699469B
:1009C000F8BD0134A8E70131A6E70421ABE7042410
:1009D000B0E7721C91461D4A94467200921992002B
:1009E00058008046C018800062446044E0C8E0C2FD
:1009F0004246D21892006046125843449E00664414
:100A000093009B1872689B189B00114AD31801220F
:100A10005A60A1E70E4BDB6EA342BDD10B4B0132F6
:100A20009A608B0059180C19A400094B1C1900235B
:100A30006360FFF71FFE074A136801331360BCE7CA
:100A4000130000229A674A461A60B6E78C0000201D
:100A5000080000208800002010B5FFF777FE0B4B40
:100A60009B6F002B09D0094CFFF7E0FEFFF70CFF4E
:100A7000FFF73CFFA36F002BF6D1FFF797FE28216D
:100A80000348FFF70EFD034B186810BD0800002057
:100A9000C80300208800002005207047052070470B
:100AA000002243088B4274D303098B425FD3030AAD
:100AB0008B4244D3030B8B4228D3030C8B420DD3C0
:100AC000FF22090212BA030C8B4202D3121209024E
:100AD00065D0030B8B4219D300E0090AC30B8B428C
:100AE00001D3CB03C01A5241830B8B4201D38B033A
:100AF000C01A5241430B8B4201D34B03C01A5241DF
:100B0000030B8B4201D30B03C01A5241C30A8B4221
:100B100001D3CB02C01A5241830A8B4201D38B020C
:100B2000C01A5241430A8B4201D34B02C01A5241B0
:100B3000030A8B4201D30B02C01A5241CDD2C30922
:100B40008B4201D3CB01C01A524183098B4201D39E
:100B50008B01C01A524143098B4201D34B01C01A89
:100B6000524103098B4201D30B01C01A5241C30801
:100B70008B4201D3CB00C01A524183088B4201D370
:100B80008B00C01A524143088B4201D34B00C01A5C
:100B90005241411A00D20146524110467047FFE7C8
:100BA00001B5002000F0F0F802BDC0460029F7D0E2
:100BB00076E7704703460B437FD4002243088B42FD
:100BC00074D303098B425FD3030A8B4244D3030BD4
:100BD0008B4228D3030C8B420DD3FF22090212BA99
:100BE000030C8B4202D31212090265D0030B8B4215
:100BF00019D300E0090AC30B8B4201D3CB03C01AFF
:100C00005241830B8B4201D38B03C01A5241430BD9
:100C10008B4201D34B03C01A5241030B8B4201D3C9
:100C20000B03C01A5241C30A8B4201D3CB02C01A34
:100C30005241830A8B4201D38B02C01A5241430AAC
:100C40008B4201D34B02C01A5241030A8B4201D39B
:100C50000B02C01A5241CDD2C3098B4201D3CB0142
:100C6000C01A524183098B4201D38B01C01A5241F1
:100C700043098B4201D34B01C01A524103098B42F5
:100C800001D30B01C01A5241C3088B4201D3CB00E0
:100C9000C01A524183088B4201D38B00C01A5241C3
:100CA00043088B4201D34B00C01A5241411A00D273
:100CB00001465241104670475DE0CA0F00D04942DC
:100CC000031000D34042534000229C4603098B424C
:100CD0002DD3030A8B4212D3FC22890112BA030AD4
:100CE0008B420CD3890192118B4208D38901921156
:100CF0008B4204D389013AD0921100E08909C309DB
:100D00008B4201D3CB01C01A524183098B4201D3DC
:100D10008B01C01A524143098B4201D34B01C01AC7
:100D2000524103098B4201D30B01C01A5241C3083F
:100D30008B4201D3CB00C01A524183088B4201D3AE
:100D40008B00C01A5241D9D243088B4201D34B00C9
:100D5000C01A5241411A00D20146634652415B100B
:100D6000104601D34042002B00D5494270476346EC
:100D70005B1000D3404201B5002000F005F802BD31
:100D80000029F8D016E770477047C0460000000001
:100D90000100000000000000010000000000000051
:100DA000020000000200000002000000020000003B
:100DB000020000000100000000000000010000002F
:100DC0000200000001000000000000000000000020
:100DD0000000000000000000000000000200000011
:100DE00001000000020000000100000002000000FD
:100DF00000000000030000000100000004000000EB
:100E000002000000030000000400000005000000D4
:100E100006000000070000000100000008000000BC
:100E200002000000080000000000000007000000B1
:100E300006000000050000000400000003000000A0
:100E40000200000006000000000000000500000095
:100E50000100000010000000200000004000000021
:100E600080000000000100000002000000040000FB
:100E70000008000000100000590A0000900E000059
:100E8000990A00009C0E00009D0A0000A80E0000B8
:100E9000F02A0000F05F0000F09C0000F03F00002E
:100EA000F05B0000E08F0000F03F0000705F00008A
:040EB000E08A0000D4
:040EB4000100000039
:00000001FF
