:1000000000400020F3010000E9010000E9010000C8
:10001000A1010000A1010000A1010000A101000058
:10002000A1010000A1010000A1010000E901000000
:10003000A1010000A1010000E9010000E9010000A8
:10004000E9010000E9010000E9010000E901000008
:10005000E9010000A1010000E9010000E901000040
:10006000E9010000E9010000E9010000E9010000E8
:10007000E9010000E9010000E9010000E9010000D8
:10008000E9010000E9010000E9010000E9010000C8
:10009000E9010000E9010000E9010000E9010000B8
:1000A000E9010000E9010000A1010000A101000038
:1000B000A1010000A1010000A1010000A1010000B8
:1000C000F0B5DE4657464E464546E0B583B000F0F3
:1000D00067FA002000F0E0FB002398469946019360
:1000E0002B4E3CE001239C46E0444346033B5A1E12
:1000F00093415B4242461A409046022835D0254B38
:100100004A461A604346DB00234A9B589B46214BD4
:100110009A46D847051E0BDB00243100200000F072
:100120008CFA0821300000F060F90134AC42F4DDB3
:1001300053464A461A60174D184C154F2B002200A3
:100140000521380000F0A6F92900200000F03EFA51
:100150000028F3D00F4B4A461A600128D9DD0D4B19
:10016000019A1A601D000D4C0B4F4346DB00FB1833
:1001700058682B002200052100F08CF9290020008E
:1001800000F024FA0128ADDC0028EED0B7E7C04625
:1001900014060020DC050020C41900004C040020D7
:1001A00072B60C4B0C4A1A600C4A8020C001002128
:1001B00010600B4BC046C046C046013B002BF9D136
:1001C0001160084BC046C046C046013B002BF9D128
:1001D000EEE7C04614050050F0FF00000405005093
:1001E00040420F00400D030010B5FFF7D9FF10BDCE
:1001F000704710B5164A136803210B431360154A64
:10020000154B9A420DD20333144A9B1A9B080133B3
:100210009B0000220F4812498C58845004329A42A5
:10022000FAD1104A104B9A4209D2111D03335B1ABE
:10023000032083435B18002102C29A42FCD1FFF7DE
:10024000D7FFFFF73DFFFFF7D3FF20BFFDE7C04615
:1002500024050040000000200800002004000020C9
:10026000001A0000080000207807002070B5002860
:1002700012DB83109B00134A944663441C68C00041
:10028000FF221600864003252E40B4430A408240D8
:100290002A4022431A6070BD030008339B109B0064
:1002A000094A944663441C68C000FF221600864039
:1002B00003252E40B4430A4082402A4022431A605C
:1002C000E9E7C04600E400E01CED00E001238340C4
:1002D000014A13607047C04600E100E001238340FB
:1002E000014A13607047C04680E100E0012383406B
:1002F000014A13607047C04680E200E030B58022BA
:1003000092020240514251418023DB0403405C428F
:100310005C41002A04D1104805680120002D07D057
:100320000020002A04D00C4A1068002800D00420C5
:10033000002B0BD1084A5268002A05D0002B09D1A6
:10034000054B19605C6030BD0230F9E7024B5B6819
:10035000002BF5D00830F3E708000020F0B5D646B2
:100360004F464646C0B5174A0A60174A4A60174AC0
:100370008A608146164E3700643764229046804476
:10038000144B9C4616E00433142B0DD0EA58002A77
:10039000F9D0F25892008A18FC58A4006444A46C66
:1003A0001068041B1460EEE79A46D14414361437E3
:1003B000C14502D04D460023E8E71CBC9046994653
:1003C000A246F0BDF03F0000F05F0000F09F00008B
:1003D000D814000058150000400005D0C046C046A3
:1003E000C04601380028F9D17047F8B504000D1E49
:1003F00013DD0027094E236833600948FFF7ECFF3F
:10040000636833600648FFF7E7FFA368336004487A
:10041000FFF7E2FF0137BD42EDD1F8BD0405005002
:1004200088130000F0B5DE4657464E464546E0B517
:1004300083B0009093469A46002B21DD01919300F2
:100440008846984400239946114F12E004350C3633
:10045000454509D034000C3C08CC3B602868FFF7C8
:10046000BBFFA642F8D1F1E701239C46E144CA450F
:1004700006D05B46002BF7DD009E0C36019DE9E7B8
:1004800003B03CBC90469946A246AB46F0BDC04680
:1004900004050050F0B5DE464F464646C0B50400A0
:1004A000884693469946002923DD0027134D144EB4
:1004B00011E0236833601348FFF78EFF63683360F1
:1004C0001048FFF789FFA36833600E48FFF784FFE9
:1004D0000137B8450DD02868FFF710FF0028E8D095
:1004E0004B461B685A1C49460A609B005A46985066
:1004F000DFE71CBC90469946A346F0BD10050050AE
:100500000405005088130000F0B5DE4657464E46FD
:100510004546E0B585B00290009201930F9882465F
:10052000002B32DD039193008846984400239946BE
:10053000194B9B46194F13E004350C36454509D03D
:1005400034000C3C08CC3B602868FFF745FFA6420E
:10055000F8D1F1E701239C46E144019B4B4514D0BF
:100560005B461868FFF7CAFE002807D053461B6891
:100570005A1C51460A609B000E9A9850009B002B13
:10058000E8DD029E0C36039DDAE705B03CBC9046E0
:100590009946A246AB46F0BD100500500405005038
:1005A000054B064A1A600023054A1360054A13608A
:1005B000054A13605360704714050050F0FF0000B7
:1005C000440700506807005008000020F0B583B0D1
:1005D00001900B68002B24DD050000220126022774
:1005E00005E00132002809D104359A4206D0286876
:1005F00030402C682742F4D00230F2E79B1A002BDF
:100600000CDD9300019CE4185E4200252368A35191
:1006100001350B689B1A0434AB42F7DC0B6003B066
:10062000F0BD0020FAE770B505000C00210028009D
:10063000FFF7CCFF0328F9D070BDF0B583B001916E
:1006400019280BDD0024193863425C41E4B21928F3
:10065000F9DC00250E49674267410DE00024F8E708
:10066000146001330432B34203D09842F8DD1760BE
:10067000F7E70535192D04D0AA0052186E1D2B007E
:10068000F3E701990248FFF769FE03B0F0BDC046E9
:10069000E8030020F0B5CE4600B582B0019089464F
:1006A0001700144B00221A60134E1D00134C31002A
:1006B0003868FFF7C2FF2B00220005213000FFF74A
:1006C000E9FE29002000FFF781FF012808DC00284F
:1006D000EDD0084B00221A6002B004BC9146F0BD78
:1006E0003B6801334B4500DD019B3B600228DED0B7
:1006F000EFE7C046DC050020140600204C04002073
:10070000F0B5DE4657464E464546E0B583B0019209
:10071000002B06DD990094466144002410C28A42F1
:10072000FCD106006422944684444948494D6746FA
:1007300034000022A1588900495981500432142AFA
:10074000F8D114361430BE42F2D102240125012B17
:1007500016DD41490135AB4203D064008C42F9DD1E
:1007600064103E4B1B1B9C46019B61461960384838
:100770003B4B9B4600239A468146D846674616E087
:100780001D000124EDE75946591855460D60043304
:10079000934208D01958A142F5DBC91B4D46595167
:1007A0004146CE50F3E765461432782A04D0130050
:1007B000143B0126AC46EDE72A492948FFF7CEFD58
:1007C000012D3DDD019B1A1D9146274A9246AD0041
:1007D0009C46AC44224A9046002601254A46019296
:1007E000E14621E00E60043304319F4206D01A68CE
:1007F000A242F7DB121B1A600D60F4E71430642884
:1008000006D0134BC318424681185A461718EEE714
:1008100051461348FFF7A2FD019B043301930C22BC
:100820009446E2444B450BD0E30F1C196410019B26
:100830001C600020064B1422944663449B46E0E76C
:1008400003B03CBC90469946A246AB46F0BDC046BC
:1008500010000020C4150000881300008913000058
:10086000E8030020140600202006002070B5064D85
:100870002C6806486043064B9C466044054900F0DE
:100880003BFD2960200070BD740000206353000010
:10089000BB8B0000EFE9000010B5034B1860FFF7B9
:1008A000E5FFFFF7E3FF10BD7400002070B5174BA4
:1008B0001B68192B1ED0FFF7D9FF144B1B68192199
:1008C000C91A00F019FD002914DB104C043400256E
:1008D0000122524215E00133052B0CD08A4209DA7D
:1008E000980020580028F6D001329142F3D1074AEF
:1008F0009566D36670BD0135052DFBD014348A4250
:10090000F8DA9142F6DD0023EAE7C04678000020DD
:1009100070B51B4B1900643100221A605A609A604E
:10092000DA601A6114339942F7D1164B1B68002B19
:1009300011DD154A5800C01880008018104D0124A0
:1009400011688B005B1851688C4663449B005C51B6
:100950000C329042F4D10D4C094D21002800FFF7D4
:10096000FDFC084A916E8B005B18D26E9B189B00B1
:1009700001225A5121000C392800FFF7EFFC70BD0D
:10098000E803002078000020FC0000202006002062
:10099000F0B5DE4657464E464546E0B583B0A84919
:1009A0000B1D683101221A605A609A60DA601A6180
:1009B00014339942F7D1A24A03241460A14B0125B4
:1009C0001D6002205860002199601162D860186192
:1009D000596151639C61D86119629164556791674F
:1009E000D467FFF763FF984C22000F210120FFF727
:1009F00051FE226814239B1A944A1360904B9A4626
:100A00009346934B0C3301938E4B0C2252429446E7
:100A1000634400936DE08A4A936F01339367884B78
:100A20009B6F002B00DA9DE0042B00D0A2E0844BEA
:100A300000229A67834B196858680139002900DA47
:100A4000AEE04B1F5A1E93415B421940002800DA6A
:100A5000A8E0431F5A1E93415B421840784B1E6822
:100A6000731E5D00ED18AD00764A5519AA68002A7C
:100A700000D199E00022AA60731C9846704B424650
:100A80001A606F4B1A68531E002B16DD53009B181B
:100A90009B00183B6B4A944663448C46814645460E
:100AA000009C1A000C321E0083CE83C20C3BA34272
:100AB000F7D161464846A8460094624B19605860D9
:100AC00000229A605E4B9B6E994200D18DE08B00B4
:100AD0005B181B189B005A4AD3185B68002B00D187
:100AE00099E08B0059180818800055490818002310
:100AF000436053465B6F002B00D192E0FFF708FF85
:100B00005B461D680321280000F0FAFB070068001F
:100B1000032100F0F5FBC31B98462B1A99464D4D57
:100B20004D4E2B00320039004948FFF7B3FC2B0033
:100B3000320041460198FFF7ADFC2B0032004946D8
:100B40004348FFF7A7FC29003000FFF76CFD02289F
:100B500000D160E7012800D061E7394A936F013B7B
:100B600093675CE7364B03229A67364B19685868DF
:100B7000013863E7334B19685868314B9B6F012B81
:100B80000CD003DD022B05D1013157E7002B00D03B
:100B900054E752E7032B00D050E7E9E701304DE777
:100BA000042153E7042059E7721C9046254A9146D8
:100BB0007200921992005E00B446F618B6004A44DC
:100BC0004E44B0CEB0C26246D21892004C4616597E
:100BD00063449A004A44B3009B1952689B189B00D7
:100BE000174AD31801225A604BE7154BDB6E984227
:100BF00000D06CE7134B01329A60114D8B005918ED
:100C000008188000281800234360FFF74FFEEB6FA1
:100C10000133EB676DE7130000225A6742461A6002
:100C200067E7FFF775FE28210948FFF7DEFB044B55
:100C3000D86F03B03CBC90469946A246AB46F0BD87
:100C400078000020FC00002000000020F8000020B8
:100C500014060020DC0500204C040020F0B5C64638
:100C600000B582B0224B00221A60C02292005A6066
:100C70001C00204B9846204D2CE02268D717FF21FE
:100C80000B003B409B181E126368D81708409C4617
:100C900060440012B3009B191B189B003F0ED21931
:100CA0001140C91B42469950144B2B60144F0D2321
:100CB0002A0039004046FFF723FD124B0193124BE7
:100CC000009301230D2229003800FFF71DFC236843
:100CD00001332360074B1900643100221A605A6007
:100CE0009A60DA601A6114338B42F7D1C5E7C046C7
:100CF00040020020B0060020E0050020881300001C
:100D000014060020DC0500204C04002070B504000F
:100D10000D00284A166883001B185B189B00D31827
:100D20005E60002838D0002910DD013983001B18CF
:100D30005B189B00D318DB6F002B07D083001B18B8
:100D40005B189B00D3185B689E4226D1032D11DCF3
:100D5000691CA3001B195B189B00164AD318DB6F94
:100D6000002B07D0A3001B195B189B00D3185B68EE
:100D70009E4215D1013CA3001B195B199B000D4A33
:100D8000D318DB6F002B07D0A3001B195B199B0046
:100D9000D3185B689E4207D170BDFFF7B7FFD5E758
:100DA0002000FFF7B3FFE5E729002000FFF7AEFFC3
:100DB000F2E7C04648020020F0B5D6464F46464608
:100DC000C0B5EAB08246444B1A68541C1C60434BC1
:100DD000996F586F0130FFF799FF002300253E48B7
:100DE00004308446814607E0AA00694604318B50EE
:100DF00001350133052B11D09A001158A142F8D1C9
:100E0000002B04DD171F4E46F759B942ECD0032BD7
:100E1000EFDC624452689142EBD1E5E7002D11D13D
:100E20002E4BDB6F534507DD2D4A1368990051188F
:100E300050464860013313606AB01CBC9046994626
:100E4000A246F0BDFFF712FD002808D1234B9B6F8F
:100E500021499A008A18526809688A4219D0FFF716
:100E600005FD290000F048FA890001ABCB581B4A68
:100E7000D26F524520D05246D600194A9619012207
:100E800052427263B3639B00134AD3180022DA679D
:100E9000D2E7002B06DD581E80000F49091849686B
:100EA0008A42E4D0032BDADC581C80000A49091876
:100EB00049688A42D3D1DAE709490968002907D08D
:100EC0000139074A1160890051184A689246D2E7F1
:100ED00001320249CA67CEE748020020C80200205A
:100EE00048030020F8B5234B1900643100221A6032
:100EF0005A609A60DA601A6114339942F7D11E4B36
:100F0000DD6F002D20DD1D4B3433ED00ED18194849
:100F1000012602E008339D4216D01F001A68042AF9
:100F200006D89400A41859688C466444A40026503E
:100F3000541E042CEED82200A400A2187C681219BA
:100F400092000C495650E5E70D4C0A4D210028004F
:100F5000FFF704FA084A516F8B005B18926F9B18D9
:100F60009B0001225A5121000C392800FFF7F6F9A5
:100F7000F8BDC046E8030020C80200204803002056
:100F800020060020F0B5DE4657464E464546E0B501
:100F900087B08C490B007C33F43101221A605A600F
:100FA0009A60DA601A6114338B42F7D1864A0423BF
:100FB0005367023B9367854C013B63610023A36148
:100FC000D367834A13600020FFF7F6FE814D2A00A5
:100FD0000A210120FFF75EFB2B680E22D21A530074
:100FE0009A18D30F9B185B10E3617B4BA5221A6004
:100FF0007A4A5A60744D09239B46744F002433E0AB
:10100000714B9B6F0133042B0DDC6F4A516F013123
:101010008A005218D21892006A498A18D26F002AA0
:1010200001D0694A93676E496E48FFF7FCFA0028C1
:1010300015D00228E4D00128F5D1AB6F5A1EF2D4A6
:10104000736F591C8B005B189B189B005D498C4685
:101050006344DB6F002BE6D05B4B9A67E3E7013418
:101060005A4BDB69A34218D07B69002B00D195E075
:10107000FFF738FF5A4B984601935A4E00960123CA
:10108000022255495848FFF73FFA41463000FFF722
:10109000CAFA0028E3D04C4ECBE74B4BD86F002860
:1010A00071DD5A6F94469B6F9A46484B5B69059376
:1010B000474B342290469844C000404441460023A8
:1010C0000393013399466646049104E0B24214D07A
:1010D000083181421AD08C460C68621C0A60052CCB
:1010E000F4D8A3001B194C68A04643449B00354C20
:1010F000A04643444C46DC67E8E763465B689A4594
:10110000E6D14B46039300230593E1E7049B984601
:10111000039B002B05D100262C4C4346B0461E00F5
:101120000DE02A4B059A5A61F5E7062B24D00123DE
:101130009C46E044244BD86F0836804523DA3100C2
:101140003368581C05280AD8820012187068844633
:10115000624492001B48844662440020D067052BFD
:10116000E3D89A00D21849685218920015498C4663
:1011700062440021D167D8E7A3690133A3614046E7
:10118000FFF71AFED3E701235B429C46E3445B462C
:10119000002B00D032E7FFF70FFE2CE7FFF7A2FE8F
:1011A00028211148FFF721F9084B986904300521DF
:1011B00000F0A6F807B03CBC90469946A246AB4664
:1011C000F0BDC04648020020C8020020C80300202D
:1011D0004803002004000020E005002088130000E0
:1011E000DC0500204C0400201406002000224308E7
:1011F0008B4274D303098B425FD3030A8B4244D3DF
:10120000030B8B4228D3030C8B420DD3FF22090220
:1012100012BA030C8B4202D31212090265D0030BDF
:101220008B4219D300E0090AC30B8B4201D3CB03D5
:10123000C01A5241830B8B4201D38B03C01A524117
:10124000430B8B4201D34B03C01A5241030B8B4219
:1012500001D30B03C01A5241C30A8B4201D3CB0204
:10126000C01A5241830A8B4201D38B02C01A5241E9
:10127000430A8B4201D34B02C01A5241030A8B42EC
:1012800001D30B02C01A5241CDD2C3098B4201D304
:10129000CB01C01A524183098B4201D38B01C01A82
:1012A000524143098B4201D34B01C01A52410309F9
:1012B0008B4201D30B01C01A5241C3088B4201D3A8
:1012C000CB00C01A524183088B4201D38B00C01A55
:1012D000524143088B4201D34B00C01A5241411A7C
:1012E00000D20146524110467047FFE701B5002089
:1012F00000F0F0F802BDC0460029F7D076E770474D
:1013000003460B437FD4002243088B4274D3030966
:101310008B425FD3030A8B4244D3030B8B4228D307
:10132000030C8B420DD3FF22090212BA030C8B422D
:1013300002D31212090265D0030B8B4219D300E0CD
:10134000090AC30B8B4201D3CB03C01A5241830B52
:101350008B4201D38B03C01A5241430B8B4201D302
:101360004B03C01A5241030B8B4201D30B03C01A2B
:101370005241C30A8B4201D3CB02C01A5241830AA5
:101380008B4201D38B02C01A5241430A8B4201D3D4
:101390004B02C01A5241030A8B4201D30B02C01AFE
:1013A0005241CDD2C3098B4201D3CB01C01A524165
:1013B00083098B4201D38B01C01A524143098B42EE
:1013C00001D34B01C01A524103098B4201D30B01D7
:1013D000C01A5241C3088B4201D3CB00C01A5241FC
:1013E00083088B4201D38B00C01A524143088B42C1
:1013F00001D34B00C01A5241411A00D2014652415A
:10140000104670475DE0CA0F00D04942031000D378
:101410004042534000229C4603098B422DD3030ACD
:101420008B4212D3FC22890112BA030A8B420CD3DD
:10143000890192118B4208D3890192118B4204D306
:1014400089013AD0921100E08909C3098B4201D386
:10145000CB01C01A524183098B4201D38B01C01AC0
:10146000524143098B4201D34B01C01A5241030937
:101470008B4201D30B01C01A5241C3088B4201D3E6
:10148000CB00C01A524183088B4201D38B00C01A93
:101490005241D9D243088B4201D34B00C01A52416A
:1014A000411A00D20146634652415B10104601D3F7
:1014B0004042002B00D54942704763465B1000D381
:1014C000404201B5002000F005F802BD0029F8D027
:1014D00016E770477047C04600000000010000009A
:1014E00000000000010000000000000002000000F9
:1014F00002000000020000000200000002000000E4
:1015000001000000000000000100000002000000D7
:1015100001000000000000000000000000000000CA
:1015200000000000000000000200000001000000B8
:1015300002000000010000000200000000000000A6
:101540000300000001000000040000000200000091
:101550000300000004000000050000000600000079
:101560000700000001000000080000000200000069
:101570000800000000000000070000000600000056
:10158000050000000400000003000000020000004D
:10159000060000000000000005000000010000003F
:1015A000100000002000000040000000800000004B
:1015B000000100000002000000040000000800001C
:1015C0000010000000000000030000000600000002
:1015D000090000000C0000000F00000012000000D5
:1015E00016000000190000001C0000002000000090
:1015F00023000000260000002A0000002D0000004B
:101600003100000034000000380000003C00000001
:101610003F00000043000000470000004B000000B6
:101620004F00000053000000570000005B00000066
:101630005F00000063000000670000006B00000016
:101640007000000074000000780000007D000000C1
:1016500081000000860000008A0000008F0000006A
:1016600094000000990000009D000000A20000000E
:10167000A7000000AC000000B1000000B6000000B0
:10168000BC000000C1000000C6000000CB0000004C
:10169000D1000000D6000000DC000000E2000000E5
:1016A000E7000000ED000000F3000000F90000007A
:1016B000FF000000050100000B0100001101000007
:1016C000180100001E010000240100002B01000091
:1016D00031010000380100003F0100004601000018
:1016E0004D010000540100005B0100006201000098
:1016F0006901000070010000780100007F01000016
:10170000870100008F010000960100009E0100008B
:10171000A6010000AE010000B6010000BF010000FC
:10172000C7010000D0010000D8010000E101000065
:10173000EA010000F2010000FB01000005020000C8
:101740000E02000017020000200200002A02000022
:10175000340200003D020000470200005102000078
:101760005C02000066020000700200007B020000C4
:1017700085020000900200009B020000A60200000B
:10178000B1020000BC020000C8020000D302000049
:10179000DF020000EB020000F7020000030300007C
:1017A0000F0300001C0300002803000035030000A5
:1017B000420300004F0300005C03000069030000C7
:1017C000770300008403000092030000A0030000E0
:1017D000AE030000BD030000CB030000DA030000ED
:1017E000E9030000F80300000704000016040000ED
:1017F00026040000360400004604000056040000E1
:1018000066040000770400008804000099040000CA
:10181000AA040000BB040000CD040000DE040000A8
:10182000F004000003050000150500002805000075
:101830003A0500004E050000610500007405000037
:10184000880500009C050000B1050000C5050000EA
:10185000DA050000EF050000040600001A0600008B
:101860002F060000450600005C060000720600001E
:1018700089060000A0060000B8060000CF060000A0
:10188000E70600000007000018070000310700000D
:101890004A070000640700007D070000970700006A
:1018A000B2070000CD070000E807000003080000B1
:1018B0001F0800003B0800005708000074080000E3
:1018C00091080000AE080000CC080000EA08000003
:1018D0000809000027090000460900006609000009
:1018E00086090000A6090000C7090000E8090000F9
:1018F000090A00002B0A00004E0A0000700A0000CE
:10190000930A0000B70A0000DB0A0000FF0A00008B
:10191000240B00004A0B00006F0B0000960B000028
:10192000BC0B0000E30B00000B0C0000330C0000AC
:101930005C0C0000850C0000AE0C0000D80C000010
:10194000030D00002E0D00005A0D0000860D000052
:10195000B20D0000DF0D00000D0E00003B0E000078
:101960006A0E00009A0E0000CA0E0000FA0E000077
:101970002B0F00005D0F00008F0F0000C20F000052
:10198000F60F00002A1000005F1000009410000005
:10199000CA10000001110000381100007011000091
:1019A000A9110000E21100001D12000057120000F2
:1019B00093120000CF1200000C1300004A13000025
:1019C0008813000091090000DC1900005D0C000084
:1019D000E8190000850F0000F4190000F02A00004B
:1019E000F05F0000F09C0000F03F0000F05B0000A2
:1019F000E08F0000F03F0000705F0000E08A000010
:081A00000100000001000000DC
:00000001FF
